:020000040800F2
:20000000285F002031020008A1260008A3260008A7260008AB260008AF26000800000000D3
:20002000000000000000000000000000B3260008B526000800000000B726000849020008C4
:200040004B0200084B0200084B0200084B0200084B0200084B0200084B0200084B020008F8
:200060004B0200084B0200084B0200084B0200084B0200084B0200084B0200084B020008D8
:200080004B0200084B0200084B0200084B0200084B0200084B0200084B0200084B020008B8
:2000A0004B0200084B0200084B0200084B0200084B0200084B0200084B0200084B02000898
:2000C0004B0200084B0200084B0200084B0200084B0200084B0200084B0200084B02000878
:2000E0004B0200084B020008C32600084B0200084B0200084B0200084B0200084B020008BC
:200100004B020008E32600084B0200084B0200084B0200084B0200084B0200084B0200087B
:200120004B0200084B0200084B020008EB2600084B0200084B0200084B0200084B02000853
:200140004B0200084B0200084B020008B92600084B0200084B0200084B0200084B02000865
:200160004B0200084B0200084B0200084B0200084B0200084B0200084B0200084B020008D7
:200180004B0200084B02000800F002F800F041F80AA090E8000C82448344AAF10107DA4525
:2001A00001D100F036F8AFF2090EBAE80F0013F0010F18BFFB1A43F00103184750BC000045
:2001C00070BC0000103A24BF78C878C1FAD8520724BF30C830C144BF04680C6070470000C4
:2001E0000023002400250026103A28BF78C1FBD8520728BF30C148BF0B60704773290BF03F
:200200003084002070471FB50BF0A4FC1FBD10B510BD0BF061FC1146FFF7F5FF02F033F8C0
:200220000BF07FFC03B4FFF7F2FF03BC0BF080FC0948804709480047FEE7FEE7FEE7FEE730
:20024000FEE7FEE7FEE7FEE7FEE7FEE704480549054A064B704700006D2500088901000823
:20026000284B0020285F0020285B0020285B002032490143324A1160704770B50021002332
:200280000F22C4781CB32E4C246804F4E064C4F5E064C4F30721C1F10404E3B20A414478AE
:2002A0009C40E1B28478144021430C07210E254C05786155047804F01F050124AC40057813
:2002C0006D11AD0005F1E025C5F8004109E0047804F01F050124AC401B4D0678761145F8C2
:2002E000264070BD194A0A400243154B1B1F1A60704739B1124A121D12680243104B1B1DE7
:200300001A6006E00E4A121D126882430C4B1B1D1A607047042808D14FF0E021096941F00F
:2003200004014FF0E022116107E04FF0E021096921F004014FF0E022116170470000FA05ED
:200340000CED00E000E400E080E100E080FFFF1F016821F001010160002101604160816041
:20036000C160016121214161DB49884204D13D21D94A103A91608CE0D7491831884205D122
:200380004FF47461D44A103A916082E0D2493031884205D14FF47411CF4A103A916078E0FA
:2003A000CD494831884205D14FF07461CA4A103A91606EE0C8496031884204D1C749C64AFC
:2003C000103AD16065E0C4497831884204D1C449C14A103AD1605CE0BF499031884204D1D1
:2003E000C049BD4A103AD16053E0BB49A831884205D14FF03D51B84A103AD16049E0BA494C
:20040000884204D13D21B84A083A116041E0B6491831884205D14FF47461B34A083A116059
:2004200037E0B1493031884205D14FF47411AE4A083A11602DE0AC494831884205D14FF0DD
:200440007461A94A083A116023E0A7496031884204D1A249A44A121F11601AE0A2497831F5
:20046000884204D19E49A04A121F116011E09E499031884204D19B499B4A121F116008E0DF
:200480009949A831884204D14FF03D51964A121F1160704710B500220268944B1A40CC683E
:2004A0000B6823434C6923438C692343CC6923430C6A23434C6A23438C6A23434C6B2343E1
:2004C0008C6B23431A430260426922F00702D1E90B3423431A4342610B6943604B6883602E
:2004E0008B68C36010BD0021016041608160C160016141618161C161016241628162C162E0
:20050000016341638163704721B1026842F00102026003E0026822F001020260704721B118
:20052000026842F40042026003E0026822F400420260704721B1026842F02002026003E0E4
:20054000026822F0200202607047416070470146486880B2704722B1036843F400230360B1
:2005600003E0036823F4002303600161704721B1026842F48022026003E0026822F48022FC
:20058000026070470AB1016100E0C1607047014600200A6802F400220AB1012000E00020A0
:2005A0007047014600200A6802F001020AB1012000E000207047014600204A6902F03800DF
:2005C000704730B503460A4600200024464DAB4202D24149103901E04349103902F000557E
:2005E0000DB14C6800E00C68414D2C4004EA02050DB1012000E0002030BD02463A4B9A42D1
:2006000002D23548103801E03748103801F000531BB1374B0B40C36002E0354B0B40836009
:20062000704710B501F080034BB122B1436943F08003436103E0436923F080034361802983
:200640000BD02AB1036801F01E042343036004E0036801F01E04A343036010BD70B50246B8
:20066000002000240025204EB24202D21A4B103B01E01D4B103B1F4E0E4036B11E2606EAC1
:20068000D124166806EA040502E0566906F0800501F000560EB15C6800E01C68144E3440CE
:2006A00004EA010616B10DB1012000E0002070BD02460D4B9A4202D20748103801E00A4858
:2006C000103801F000531BB1094B0B40C36002E0074B0B4083607047106002403D000020D8
:2006E000400F002000003D20106402403F801CF07D0F7D0F3C0F3C0FF74A1070704730B1A6
:20070000F549096841F48071F34A116005E0F249096821F48071F04A1160704730B1EE4945
:20072000096841F40071EC4A116005E0EA49096821F40071E84A1160704730B1E649096811
:2007400041F48061E44A116005E0E349096821F48061E14A11607047DF48006840F40060F6
:20076000DD4908607047DC48006840F48050DA4908607047D8481030006800F0004028B191
:20078000D648D549091D0860D54808607047D2481030006840F00040CF49103108607047A9
:2007A0000820CD490C31096801F48031B1F5803F01D1012018E0C8490C31096801F0100196
:2007C00009B1052010E0C4490C31096801F0E00109B1062008E0C0490C31096801F002014A
:2007E00009B1072000E00820704708B508200090FFF7D6FF009002E0FFF7D2FF00909DF8BB
:2008000000000128F8D09DF8000008BD70B504460A460026082502B909E0012A01D11602C2
:2008200005E0022A01D1160201E04FF44076FFF7DCFF0546082D2DD1A7481030006820F4E9
:200840004070A5491031086008460068304308600846006820F0F80008600846006844F0B0
:20086000020108439C49103108600846006840F480300860FFF7B9FF05469748103000681A
:2008800020F002009449103108600846006820F0F8000860284670BD30B502460025082481
:2008A000FFF7A3FF044602B909E0012A01D1150205E0022A01D1150201E04FF44075082C97
:2008C00020D185481030006820F4407082491031086008460068284308600846006840F00B
:2008E000040008600846006840F480300860FFF77CFF044678481030006820F00400764994
:2009000010310860204630BD70B5064614461D460822FFF76AFF0246082A1ED16E481030C5
:20092000006820F440706C49103108600846006840F4407008600846006840F001000860DC
:2009400034607560FFF751FF024663481030006820F00100604910310860104670BD30B582
:2009600002460C460825FFF740FF0546082D1DD159481030006820F44070574910310860B7
:200980000846006840F4007008600846006840F0010008601460FFF728FF05464E48103094
:2009A000006820F001004C4910310860284630BD30B502460C460825FFF717FF0546082DED
:2009C0001DD145481030006820F440704249103108600846006840F4807008600846006804
:2009E00040F0010008601480FFF7FFFE05463A481030006820F001003749103108602846BA
:200A000030BD30B502460C460825FFF7EEFE0546082D1BD130481030006820F440702E4994
:200A2000103108600846006808600846006840F0010008601470FFF7D8FE05462648103057
:200A4000006820F00100244910310860284630BD21481430006800F0010028B121481E49FD
:200A6000083108602048086070471B481430006840F00100184914310860704730B502461C
:200A80000C460825FFF7B1FE0546082D10D13CB111481630008890430F491631088007E0DC
:200AA0000D481630008891B208430B491631088030BD30B502460C460825FFF796FE0546F4
:200AC000082D19D194B104481A300088904302491A31088010E00000003C02402301674565
:200AE000AB89EFCD3B2A19087F6E5D4C4148008891B208433F49088030BD10B50246082415
:200B0000FFF773FE0446082C02D13A48401F027010BDF0B504460D46FF260827FFF765FE0E
:200B20000746082F0BD13348801F007800F00F0645EA0600104320432E49891F0870F0BD8F
:200B40002C49891F097821F00C012A4A921F11701146097801431170704700B50822254893
:200B6000801F007840F002002249891F0870FFF73CFE0246104600BD1E48801F0068C0F3F6
:200B8000471070471B48001F0088704719480088704700201749491F0978AA2901D00120B8
:200BA00000E0002070471348801F007800F00C00704739B10F4A0A3A126802430D4B0A3B76
:200BC0001A6006E00B4A0A3A12688243094B0A3B1A60704701460020064A0E3A12680A4050
:200BE0000AB1012000E00020704702490E390860704700001A3C024030B943F2DB0281009D
:200C0000A1F1C0410A6005E043F2D2028100A1F1C0410A606FF07042411C8900A1F1C041E1
:200C20000A608100A1F1C041C1F804217047D0E901121143C2681143026911434269114345
:200C400082691143C2691143026A1143426A1143826A1143C26A1143026B11430268920099
:200C6000A2F1C0421160816808290BD101688900A1F1C041096841F0400201688900A1F18B
:200C8000C0410A60416B0968426B526841EA0211426B926841EA0221426B928941EA0241FC
:200CA000426B128A41EA0251426B127D41EA0261426B926911430268521C9200A2F1C042A8
:200CC0001160C16AB1F5804F1BD1816B0968826B526841EA0211826B926841EA0221826BB3
:200CE000128A41EA0251826B127D41EA0261826B9269114302689200A2F1C042C2F8041134
:200D000007E06FF0704201688900A1F1C041C1F80421704700210160022141600021816079
:200D2000C160016141618161C16101624FF480514162490081620021C16201630F21426BBF
:200D40001160426B5160FF21426B91600F21426BD160426B1161426B51610021426B9161BA
:200D60000F21826B1160826B5160FF21826B91600F21826BD160826B1161826B51610021DC
:200D8000826B9161704751B18200A2F1C042126842F001038200A2F1C042136009E08200FF
:200DA000A2F1C0421268F94B1A408300A3F1C0431A60704710280AD118214FF020421166D7
:200DC000402151664FF0FC319166D16610E01821EF4A116040214FF02042C2F884104FF0FF
:200DE000FC31EB4A083211604FF02042C2F88C10704730B5002100220023446844F0080401
:200E000085682C43C5682C4305692C43456944EA4524856944EA4531C4692468C5696D686A
:200E200044EA0524C5692D8944EA0544C5692D7B44EA0562046A2468056A6D6844EA052400
:200E4000056A2D8944EA0544056A2D7B44EA05630468102C05D14FF020442166A266E36650
:200E600008E0CB4C21604FF02044C4F88820C84C0C34236030BD10210160002141608160F2
:200E8000C160016141618161FC21C2691160C2695160C2699160C269D160026A1160026AF5
:200EA0005160026A9160026AD160704799B1102808D14FF02042126E42F004024FF020437A
:200EC0001A661DE0B24A126842F004024FF02043C3F8802014E0102809D14FF02042126EC3
:200EE000AA4BDB1E1A404FF020431A6608E0A84A1268A64BDB1E1A404FF02043C3F88020F3
:200F0000704799B1102808D14FF02042126E42F040024FF020431A661DE09D4A126842F078
:200F200040024FF02043C3F8802014E0102809D14FF02042126E954B3F3B1A404FF02043F5
:200F40001A6608E0924A1268904B3F3B1A404FF02043C3F88020704701460020102903D1FC
:200F60004FF02042506F02E0894A143210687047182087492031086000200906C1F8A4009A
:200F80004FF0FC30824928310860091D0860091D08607047016841F01001426841EA4221A4
:200FA000826841EA42317A4A20321160C1680968C268526841EA0221C268128941EA024123
:200FC000C268127B41EA0261714A28321160016909680269526841EA02210269128941EAC7
:200FE00002410269127B41EA0261694A2C321160416909684269526841EA02214269128992
:2010000041EA02414269127B41EA02614FF02042C2F8B01070470021016041608160FC21A9
:20102000C2681160C2685160C2689160C268D1600269116002695160026991600269D160D4
:201040004269116042695160426991604269D160704748B14E492031096841F004014FF022
:201060002042C2F8A01009E0494920310968474AD21E11404FF02042C2F8A010704710B50E
:20108000F2B1102807D14FF020435B6E0B434FF02044636632E0B0F5807F08D13C4B1B1D2A
:2010A0001B680B434FF02044C4F8843026E0384B24331B680B434FF02044C4F8A4301DE06B
:2010C000102807D14FF020435B6E8B434FF02044636613E0B0F5807F08D12D4B1B1D1B68B8
:2010E0008B434FF02044C4F8843007E0284B24331B688B434FF02044C4F8A43010BD10B548
:20110000024600200023102A03D14FF02044636E09E0B2F5807F03D11D4C241D236802E048
:201120001B4C2434236803EA01040CB1012000E0002010BD102807D14FF02042526E8A438A
:201140004FF020435A6613E0B0F5807F08D1104A121D12688A434FF02043C3F8842007E005
:201160000B4A243212688A434FF02043C3F8A420704770B502460020002300240025102A72
:2011800008D14FF02046736E0DE00000FEFF0F00800000A0B2F5807F02D1184E336802E07B
:2011A000164E2036336803EA010403EAD10514B10DB1012000E0002070BD102808D14FF004
:2011C0002042526E22EAD1024FF020435A6614E0B0F5807F08D1094A126822EAD1024FF050
:2011E0002043C3F8842008E0044A2032126822EAD1024FF02043C3F8A4207047840000A050
:2012000010B504468C48844208D10121084600F007FB0021012000F003FB5EE087488442E7
:2012200008D10121022000F0FBFA0021022000F0F7FA52E08248844208D10121042000F0B7
:20124000EFFA0021042000F0EBFA46E07D48844208D10121082000F0E3FA0021082000F0B1
:20126000DFFA3AE07848844208D10121102000F0D7FA0021102000F0D3FA2EE0734884426C
:2012800008D10121202000F0CBFA0021202000F0C7FA22E06E48844208D10121402000F083
:2012A000BFFA0021402000F0BBFA16E06948844208D10121802000F0B3FA0021802000F0F9
:2012C000AFFA0AE06448844207D10121801500F0A7FA0021A01500F0A3FA10BDF0B50A46C4
:2012E00000210023002400BF3DE0012505FA01F3156805EA03049C4234D105684F00032656
:20130000BE40B543056015794E00B5400668354305601579012D02D01579022D16D1856837
:201320004F000326BE40B543856055794E00B540866835438560456801268E40B5434560BF
:20134000456896798E40B6B235434560C5684F000326BE40B543C560D5794E00B540C668FF
:201360003543C560491C1029BFD3F0BD4FF6FF7101600021017141718171C171704708B500
:201380004FF480320092009A0A430092009AC261C161009AC261C2690092C269009208BD72
:2013A0000246002013690B400BB1012000E0002070470146086980B27047024600205369A5
:2013C0000B400BB1012000E0002070470146486980B2704701837047418370470AB1018358
:2013E00000E0418370474161704742694A4042617047F0B5002300244D07ED0E02FA05F37B
:20140000CE1000F1200555F826504E07F70E0F26BE40B543CF1000F1200646F82750CE1007
:2014200000F1200555F8265045EA0304CE1000F1200545F82640F0BD0000024000040240D1
:2014400000080240000C0240001002400014024000180240001C024000200240F948006889
:2014600040F00100F74908600020F64908310860F4480068F4490840F2490860F348091D66
:201480000860F348EF4984310860EE48006820F48020EC4908600020EA490C3108607047B6
:2014A0000021E84A921C117011460870704710B501460022002300204A11012A02D1E14C2D
:2014C000236808E0022A03D1DE4C7034236802E0DC4C7434236801F01F02012494401C409C
:2014E0000CB1012000E0002010BD38B5002000900024002500BF3120FFF7D9FF054600989A
:20150000401C00900098B0F5A06F01D0002DF2D03120FFF7CCFF08B1012400E00024204679
:2015200038BD01460020C74A106820F0F80040EAC10010607047C749086070470021C14A51
:20154000703211701170012802D004280AD104E00121BC4A7032117005E00521B94A703206
:20156000117000E000BF00BF7047BB490860704770B5049C41EA82150126C6EB530645EACB
:201580000645054345EA0465AE4E361D356070BDB04908667047820142EA0172A94B843324
:2015A0001A607047AB4988667047AA49C864704702460020A34B0833186820F0EC6042EAF2
:2015C000010318439F4B083318607047024600209C4B0833186820F0784042EA01031843FB
:2015E000984B08331860704701460020954A0832106820F003000843106070479148083010
:20160000006800F00C007047014600208D4A0832106820F0F00008431060704701460020E6
:20162000884A0832106820F4E05008431060704701460020834A0832106820F4604040EAAC
:20164000C10010607047F0B50021002200240225002602237B4F08373F6807F00C0121B19E
:20166000042905D0082937D105E07C4F076036E07B4F076033E0734F3F1D3F68C7F3805669
:20168000704F3F1D3F6807F03F036EB1744FB7FBF3F7DFF8B0C10CF1040CDCF800C0CCF329
:2016A000881C07FB0CF40CE06C4FB7FBF3F7DFF894C10CF1040CDCF800C0CCF3881C07FB0F
:2016C0000CF4604F3F1D3F68C7F301477F1C7D00B4FBF5F7076002E0604F076000BF00BFC6
:2016E000584F08373F6807F0F00109095D4F7A5C0768D7404760534F08373F6807F4E05100
:20170000890A584F7A5C4768D74087604D4F08373F6807F46041490B524F7A5C4768D7405D
:20172000C760F0BD002100F44072B2F5407F0AD1444A0832116821F4F8114B4A0240114343
:20174000404A083211603F4A70321268C0F30B031A433C4B70331A6070473F4944390860C9
:2017600070473D494039086070474049086070473F490860704739B1324A303212680243BE
:20178000304B30331A6006E02E4A3032126882432C4B30331A60704739B12A4A34321268A9
:2017A0000243284B34331A6006E0264A343212688243244B34331A60704739B1214A3832CF
:2017C000126802431F4B38331A6006E01D4A3832126882431B4B38331A60704739B1194AB6
:2017E000403212680243174B40331A6006E0154A403212688243134B40331A60704739B187
:20180000104A4432126802430E4B44331A6006E00C4A4432126882430A4B44331A60704701
:2018200039B1084A103212680243064B10331A6006E0044A103212688243024B10331A609E
:201840007047000000380240FFFFF6FA103000240030002000004742800E47420024F400FD
:2018600000127A0000000020FFFCFF0F5C014742E011474229B15E4A126802435C4B1A60F1
:2018800004E05B4A12688243594B1A60704739B1574A121D12680243554B1B1D1A6006E0FA
:2018A000534A121D12688243514B1B1D1A60704739B14F4A0C32126802434D4B0C331A6047
:2018C00006E04B4A0C3212688243494B0C331A60704739B1464A103212680243444B1033BF
:2018E0001A6006E0424A103212688243404B10331A60704739B13E4A3C32126802433C4B56
:201900003C331A6006E03A4A3C3212688243384B3C331A60704739B1354A4032126802430A
:20192000334B40331A6006E0314A4032126882432F4B40331A60704739B12D4A44321268BB
:2019400002432B4B44331A6006E0294A443212688243274B44331A60704739B1244A4C32DD
:2019600012680243224B4C331A6006E0204A4C32126882431E4B4C331A60704739B11C4ACC
:201980005032126802431A4B50331A6006E0184A503212688243164B50331A60704739B19C
:2019A000134AD21F12780243114BDB1F1A7006E00F4AD21F127882430D4BDB1F1A70704718
:2019C0000B486030006840F08070094960310860704701460020064A083A12680A400AB122
:2019E000012000E0002070470149891F087070471438024010B50121C802FFF76AFF00212F
:201A00004FF40060FFF765FF10BD00216C4A116847F6FF629143027D83681A4343681A436B
:201A2000C3681A4303681A4303691A431143644A1160704700210175016041608160C160C8
:201A4000016170475F49086070475D49091F086070475B48001F006800F0030070470021C4
:201A6000574B1B1D02681A601A1D11686FF30A01D0E901231A43C3681A4303691A431143AC
:201A80004F4A0832116070470021016041608160C160016170474A480C300068C0B27047AE
:201AA00008B501460020009045481030084400900098006808BD0021414B203302681A6020
:201AC0001B1D42681A601A1D116821F0F701D0E902231A4303691A4343691A431143384A0E
:201AE0002832116070474FF0FF310160002141608160C16001614161704731482C300068D8
:201B000070472F487C30006870472D497C31086070472B484430006870472B4908607047F1
:201B20002949091D08607047274908310860704725490C3108607047244908607047234964
:201B4000091D0860704701218143204A0832116070471E490C31086070471B4914390860B2
:201B6000704739B1164A383212680243144B38331A6006E0124A383212688243104B383346
:201B80001A607047014600200D4A303212680A400AB1012000E0002070470949343108607E
:201BA000704701460020064A303212680A400AB1012000E000207047014934310860704730
:201BC000042C0140A0802542A0852542AC81254210B50446F648844208D101218014FFF755
:201BE00078FE0021A014FFF774FE3CE0F148844208D101210014FFF75BFE00212014FFF76E
:201C000057FE30E0EC48844208D10121C013FFF74FFE0021E013FFF74BFE24E0E748844208
:201C200008D101214014FFF754FE00216014FFF750FE18E0E248844209D101210805FFF74D
:201C400048FE00214FF48010FFF743FE0BE0DD48844208D101214805FFF73BFE00214FF462
:201C60000010FFF736FE10BD10B50022028802F441520B884C8823438C882343CC88234362
:201C80000C8923434C8923438C892343CC8923431A430280838B4FF2FF74234083830B8A39
:201CA000038210BD2DE9F04F002502230024012700220026944690469146B0F81CA04FF273
:201CC000400B0AEA0B0AA0F81CA04FF0020AA0F820A0858BD1F808A0BAF1020F01D100BFEB
:201CE0006CE0B1F804A0BAF1000F01D1012700E00227DFF8D4A2DAF800A00AF4000ABAF11C
:201D0000000F09D0DFF8C0A2DAF800A02AF4000ADFF8B4B2CBF800A0DFF8ACA20AF17C0AC2
:201D2000DAF800A0CAF38818DFF89CA20AF17C0ADAF800A0CAF30279DFF88CA2AAF1040AE6
:201D4000DAF800A00AF03F0CDFF880A2BAFBFCFA0AFB08FABAFBF9F6B1F806A0BAF5007F00
:201D60000ED14FEA162A0AEB8A0A4FEA4A0AD1F808B0BAFBFBFA0AF1050A1FFA8AF20FE03C
:201D80004FEA471AB6FBFAFA0AEB8A0A4FEA4A0AD1F808B0BAFBFBFA0AF1050A1FFA8AF224
:201DA0004FF00A0AB2FBFAF202F00104A2EB040ACAF34F034FF6FF7A0AEA0424022B01DBB3
:201DC000FF2B01DD02230024B1F806A04AEA040A4AEA030AA0F820A0B1F804A0B1F80CB0D6
:201DE0004AEA0B0AB1F802B04AEA0B0AB1F800B04AEA0B0A4AF4006A4AEA05058583BDE8C1
:201E0000F08F0021018041808180C180018141818181C18107210182704700210180418051
:201E20008180C1800221816000218181704721B1028842F04002028004E002884FF6BF734B
:201E40001A400280704721B1828B42F48062828304E0828B4FF6FF331A40828370470288EB
:201E60004FF2FF731A40028002880A4302807047B1F5804F04D1028842F48042028004E091
:201E800002884BF6FF731A40028070474FF6FF62914204D0028842F48072028004E0028883
:201EA0004FF6FF631A400280704721B1828842F00402828004E082884FF6FB731A408280D5
:201EC000704721B1828842F01002828004E082884FF6EF731A408280704730B50022002357
:201EE000848B4FF240052C40848302240484828B0C88B4F5007F01D00C8814B94FF48073FB
:201F000008E00C88B4F5407F03D00C88B4F5807F00D100238C888D892C434D882C431C439E
:201F200044F400642243828330BD0146888970478181704721B1028842F40052028004E09C
:201F400002884DF6FF731A4002807047018841F480510180704702460020012901D0108BEA
:201F600000E0908A70470146088A70471AB183880B43838002E083888B438380704730B59F
:201F8000002400230C110125A540ABB21AB185881D43858002E085889D43858030BD02462F
:201FA000002013890B400BB1012000E0002070470030014000380040003C004000340140AC
:201FC00000500140005401400838024000127A00CA4302817047F0B5024600200024002332
:201FE000002501F00F070126BE40B4B20B1101269E40B3B2968806EA03051689264016B1C2
:020000040800F2
:202000000DB1012000E00020F0BD10B5002201F00F040123A3409AB2D343038110BD00008F
:2020200000E0401E0028FCD1704710B501217F20FFF7A1FB10BD1CB501210846FFF79BFB04
:202040004FF40070009002208DF8040000208DF806006946C948FFF741F94FF48060009044
:202060006946C648FFF73AF91CBDF0B585B000250027002004900024C148039000BF012225
:20208000C0A1C54803F056F907465FB10120C34908704FF6FF73C2A240F22111052005F0F5
:2020A0001EFCD5E0BC48C068B0F5702F78D84FF47843BEA240F22111322005F010FC00205C
:2020C000B6490870FEF7C4FC00211020FEF7D6FC00212020FEF7D2FC00214020FEF7CEFC58
:2020E00000218020FEF7CAFC00214FF48070FEF7C5FC00214FF40070FEF7C0FC00214FF471
:202100008060FEF7BBFC00214FF40060FEF7B6FC02212020FEF77AFB02212820FEF776FB2A
:2021200002213020FEF772FB02213820FEF76EFB02214020FEF76AFB02214820FEF766FB33
:2021400002215020FEF762FB02215820FEF75EFB4FF40061974809F02BFC4FF4006196488C
:2021600009F026FC6FE004AB4FF4006292498A4803F090F9BDF81060F01706EB90708210C9
:202180008D4903A806F0C0FF0546012D09D14FF6FF738AA240F22111052005F0A0FB53E087
:2021A00053E055B1022D08D14FF6FF7386A240F22111052005F093FB46E04FF400617D4864
:2021C00009F0F6FB4FF400617B4809F0F1FBBDF810000444C4EB041040016F49C968B0FB24
:2021E000F1F086B27CA04FF4FC6100911E233246CDE9011040F22111002005F0A8FB66482F
:20220000C068A04204D9BDF81000B0F5806F1ADA6148C068A0420BD95F4803F098FB0023A3
:202220006EA240F22111F02005F059FB00BFFEE7594803F08CFB00236CA240F22111F0206D
:2022400005F04DFB00E08EE702E001205349087005B0F0BD6A4800E0401E0028FCD17047D7
:2022600010B5ADF50A7D012266A1684603F062F804462CB14FF480520121002004F014F8CD
:202280000DF50A7D10BD70B5FFF7CFFE05F05EFE04F005FD04F0D3FC05F0CAF9002509E030
:2022A000002000F02BFA20B95A49002003F02FF802E06D1C0A2DF3DB00BF57A24FF4A071B7
:2022C0004FF4F07005F0ABFB002415E0012000F015FA20B95349012003F019F80EE0042CCF
:2022E00009D1FFF7B7FF4FF4FC634FA240F22111A52005F0F4FA641C142CE7DB00BF042D47
:2023000015DB4FF4FC634CA214210A2005F0E7FA4FF4FC634FA228210A2005F0E0FA4FF4F0
:20232000FC6354A240F20D11A52005F0D8FA4FF4FC6355A240F221114FF4DC7005F0CFFA22
:20234000002005F066FAFFF785FF01220DA1124802F0F0FF60B9FEF70DFAF320FEF745FC24
:20236000FFF783FEFEF713FA054806F0F4FE02E0034806F0F0FE002070BD0000000002400F
:2023800000000108313A2F7379732F63726561746F72702E62696E002405002020000020BC
:2023A00066696C65206572726F720000776169742E2E2E00741900207409002077726974E4
:2023C00065206572726F720077726974652064617461206572726F72000000007772697459
:2023E000652066696C65206661696C0077726974652066696C6520737563636573730000F8
:20240000007A030A303A796168656932342E786266000000F0020020303A73746172742E0F
:20242000626D7000BC00002053442063617264204661696C2E2E2E00426F6F746C6F6164D6
:2024400065722056312E3320323032303132313000000000436F70797269676874203230BA
:20246000323020627920466C617368666F7267652E00000053504920464C4153482046616F
:20248000696C2E2E2E00000056312E33000000000CB50020019000907648006840F48030E9
:2024A0007449086000BF7348006800F4003000900198401C0190009818B90198B0F5A06F25
:2024C000F1D16C48006800F4003010B10120009001E0002000900098012846D16548403002
:2024E000006840F080506349403108606248006840F44040604908605E48083000685D492C
:20250000083108600846006840F4004008600846006840F4A05008605848091F0860081FEF
:20252000006840F08070091F086000BF5148006800F000700028F9D040F2057050490860CA
:202540004C480830006820F003004A49083108600846006840F00200086000BF454808302C
:20256000006800F00C000828F8D10CBD10B54548006840F47000434908603E48006840F0C5
:2025800001003C49086000203A4908310860394800683D490840374908603C48091D086058
:2025A000081F006820F48020091F0860002031490C310860FFF76CFF4FF0006031498039D6
:2025C000086010BD70B500200022022300240221284D08352D6805F00C0020B1042806D0D8
:2025E000082834D107E02A4D2A4E356033E02A4D284E35602FE01F4D2D1D2D68C5F38054C0
:202600001C4D2D1D2D6805F03F0154B1224DB5FBF1F5184E361D3668C6F3881605FB06F28D
:2026200009E01B4DB5FBF1F5124E361D3668C6F3881605FB06F20F4D2D1D2D68C5F30145DA
:202640006D1C6B00B2FBF3F5124E356003E0104D104E356000BF00BF064D08352D68C5F36E
:2026600003150E4E705D0B4D2D68C540094E356070BD000000380240007000400854400741
:20268000003C024088ED00E0FFFFF6FE103000240024F4002400002000127A0028000020E1
:2026A000704700BFFEE700BFFEE700BFFEE700BFFEE770477047704710B50E4809F049F859
:2026C00010BD10B50B48807A50B10B48006820F0060009490860FFF749FF064808F02FFAE2
:2026E00010BD10B501F0DCFD10BD10B501F042FE10BD0000D044002010ED00E070B504466E
:2027000001256CB1012C04D0042C18D0052C17D117E005F0ACFE08B9002500E0022510E0D1
:2027200006F032F906F086F99A49884201D1002500E003254FF4C0409749088001E000E0EB
:2027400000BF00BF284670BD0146012059B1012905D0042905D0052907D1002007E00020C0
:2027600005E0002003E0002001E0002000BF00BF70472DE9F04707460E4615461C464FF031
:202780000008C246C146012084490870002F3FD0012F04D0042F3AD0052F4AD14AE0012C97
:2027A00006D13146284605F08FFF00F0FF0906E022463146284605F0A6FF00F0FF0919E024
:2027C00005F055FE012C06D13146284605F07CFF00F0FF0906E022463146284605F093FFA6
:2027E00000F0FF0908F1010000F0FF08B8F1050F00DB02E0B9F1000FE2D100BFB9F1000F92
:2028000002D04FF0010A15E04FF0000A12E011E00AE069024FF40072304606F04EFA6D1C34
:2028200006F50076601EC4B2002CF2DC4FF0000A00E000BF00BF0020584908705046BDE81E
:20284000F0872DE9F04707460E4615461C464FF0000AD046002F41D0012F04D0042F3CD074
:20286000052F4CD14EE04FF00009012C06D13146284605F088FF00F0FF0906E0224631466F
:20288000284605F0E8FF00F0FF0919E005F0EFFD012C06D13146284605F075FF00F0FF09D2
:2028A00006E022463146284605F0D5FF00F0FF0908F1010000F0FF08B8F1050F00DB02E0B9
:2028C000B9F1000FE2D100BFB9F1000F02D04FF0010A01E04FF0000A14E013E00AE0690292
:2028E0004FF40072304606F07EFA6D1C06F50076601EC4B2002CF2DC4FF0000A02E04FF0ED
:20290000040A00BF00BF5046BDE8F08710B5034603B3012B04D0042B1BD0052B36D135E04F
:2029200031B101290FD0022904D003290DD106E000200CE04FF400741480002007E0082433
:202940001480002003E0002001E0042000BF00BF1CE01BE031B101290FD0022904D0032930
:2029600010D106E000200FE04FF40074148000200AE008241480002006E0074C24881460F3
:20298000002001E0042000BF00BF00BF00BF10BD034870471840EF003A000020380000204E
:2029A0000000214208B54FF4C060FDF761FC31208DF8000000208DF801008DF8020001201F
:2029C0008DF803006846FDF758FC3B208DF8000001208DF801006846FDF74FFC08BD1CB56F
:2029E0000020FFF72FF80020FFF72FF8FFF702F800214FF40060FEF702FF00220821FE4822
:202A0000FEF7F7FC00220921FB48FEF7F2FC00220A21F948FEF7EDFC00220B21F648FEF76F
:202A2000E8FC00220C21F448FEF7E3FC00220221F248FEF7DEFC4FF47060009000208DF8BD
:202A400004008DF807006946EB48FEF747FC042000906946E948FEF741FC4FF48050009063
:202A60006946E548FEF73AFC1CBD1CB501210C20FEF781FE0C220821DF48FEF7BAFC0C228C
:202A80000921DD48FEF7B5FC0C220A21DA48FEF7B0FC0C220B21D848FEF7ABFC0C2211468A
:202AA000D548FEF7A6FC0C220221D448FEF7A1FC4FF47060009001208DF8050002208DF86E
:202AC000040000208DF8060001208DF807006946C948FEF703FC042000906946C748FEF77F
:202AE000FDFB4FF48050009000208DF807006946C148FEF7F3FB0121C802FEF780FE012173
:202B00008805FEF738FE1CBD30B58FB004460D464FF0FA51BA48FDF770FD0021B848FDF761
:202B2000F3FCB748FDF714FC4FF000600090B54801900294402003900020049005904FF4D1
:202B400080600690800007900020089009904FF440300A9004200B9003200C904FF4000089
:202B60000D9080100E906946A548FDF793FC01221021A348FDF755FD2021A148FDF7DAFCF2
:202B800001219F48FDF7C0FC0FB030BD30B58FB004460D464FF0FA519948FDF72EFD002164
:202BA0009748FDF7B1FC9648FDF7D2FB4FF0006000909448019002940020039004900590E8
:202BC0004FF480600690800007900020089009904FF440300A9004200B9003200C904FF4C6
:202BE00000000D9080100E9069468548FDF752FC012210218248FDF714FD20218048FDF72C
:202C000099FC01217E48FDF77FFC0FB030BD10B5FFF7E5FE10BD2DE9F04106460027794836
:202C20004C38056802E077484C38056805F045000028F8D005F0040030B103270420FEF7CA
:202C4000ACFF3846BDE8F08105F0010028B101270120FEF7A2FF3846F4E7FEF71CFFB0422C
:202C600002D010273846EDE740F2FF50FEF795FF0020FEF715FF04466348204008B9384632
:202C8000E0E704F0004008B11C20DBE704F0804008B10920D6E704F0005008B10A20D1E750
:202CA00004F0805008B10B20CCE704F0006008B10C20C7E704F0806008B10D20C2E704F07B
:202CC000807008B10E20BDE704F4000008B10F20B8E704F4800008B11020B3E704F40010F7
:202CE00008B11120AEE704F4801008B11220A9E704F4002008B11320A4E704F4802008B172
:202D000014209FE704F4003008B115209AE704F4803008B1162095E704F4004008B1172027
:202D200090E704F4804008B118208BE704F4005008B1192086E704F0080008B11A2081E703
:202D400038467FE72DE9FC4107460D460026002400200090019008202C4908601020486034
:202D6000402088600020C8604FF4806008610846FEF775FE1020FFF74EFF044614B1204699
:202D8000BDE8FC812248008800042049086037204860402088600020C8604FF4806008612F
:202DA0000846FEF75CFE3720FFF735FF04460CB12046E5E74FF0FF301649086008204860B7
:202DC000302088600220C86000200861012048610846FEF770FE00200C4908603320486095
:202DE000402088600020C8604FF4806008610846FEF735FE33200FE000080240000C024067
:202E000058640240802C014008E0FFFD0C2200204000002020220020FFF7FDFE04460CB1DB
:202E20002046ADE709E04FF40010FEF7ABFE20B1FEF767FE4DF82600761CFE48006840F2B6
:202E40002A6108400028EED00820FEF79BFE28B10820FEF7A2FE0424204691E70220FEF750
:202E600091FE28B10220FEF798FE0224204687E72020FEF787FE28B12020FEF78EFE0624C5
:202E800020467DE74FF40070FEF77CFE30B14FF40070FEF782FE0724204671E740F2FF50D3
:202EA000FEF77BFE00980006009901F47F4140EA0120009901F47F0140EA1120009940EA41
:202EC0001160686001980006019901F47F4140EA0120019901F47F0140EA1120019940EA52
:202EE0001160286020464BE77CB505460024002000900190FEF7D4FD00F0007010B10E2447
:202F000020467CBDCC49098888B26946FFF71AFF04460CB12046F4E7012D36D1019800F46A
:202F2000802000282ED0C44800880004C349086037204860402088600020C860A80208611D
:202F40000846FEF78CFD3720FFF765FE04460CB12046D6E70220B949086006204860402011
:202F600088600020C8604FF4806008610846FEF776FD0620FFF74FFE04460CB12046C0E762
:202F80002046BEE725242046BBE7019800F4803078B3A94800880004A84908603720486098
:202FA000402088600020C8604FF4806008610846FEF755FD3720FFF72EFE04460CB120467A
:202FC0009FE700209D49086006204860402088600020C8604FF4806008610846FEF73FFD94
:202FE0000620FFF718FE04460CB1204689E7204687E7FFE72524204683E770B5044600255B
:203000008F480068032802D12725284670BD8C48006838B18A480068012803D088480068F9
:2030200002282ED1B4F5805F02D127252846EDE7B4F5006F14D10120FFF756FF054605BB0A
:2030400006208049087500200860486088604FF40060C860002008610846FEF7D6FC10E093
:203060000020FFF741FF05465DB90620754908750020086048608860C86008610846FEF74C
:20308000C4FC2846C2E770B5044600256B48046007206A494860402088600020C8604FF459
:2030A000806008610846FEF7DAFC0720FFF7B3FD0546284670BD30B5014600200022604BE2
:2030C0001B7881F84E305C4B1B88A1F84C305E4B1B681A0E93090B70C2F383034B7002F0B4
:2030E00003038B70584B1B68C3F30742CA70564B1B88C3F307220A71534B1A784A715B6824
:203100001A0E1301CB80504B5B68C3F30742CB8843EA1213CB8002F00F030B724A4B9B88A2
:20312000C3F30722D3094B72C2F380138B72C2F34013CB72C2F300130B7300234B73404BDB
:203140001B681BB13E4B1B68012B3CD193071B0D0B613D4B1A790B6943EA82030B613A4B7B
:203160009B681A0E0B6943EA92130B61C2F3C2030B7502F007034B75334B9B68C3F307423C
:2031800053098B75C2F38203CB7593075B0F0B762D4B1B89C3F307220B7E43EAD2130B76BD
:2031A0000B695B1C4B640C7E4B6CA41C0125A5406B434B640C7A0123A3408B64D1E9113491
:2031C00063434B6421E01E4B1B68022B1DD11E4B1A7993069B0A0B611B4B9B681A0E0B69E7
:2031E00043EA02230B61184B9B68C3F307420B6913430B61144B1B89C3F307220B695B1CA9
:20320000DB044B644FF400738B64C2F3801301F8193F93065B0E4B700B4B1A7A4B7843EA4B
:20322000D2134B7002F07F038B70074BDB681A0ED3090BE0342C0140400000200C220020AC
:203240003C000020F421002074210020CB70C2F341130B71C2F382034B7193071B0F8B71B2
:20326000FE4BDB68C3F307428B7943EA92138B71C2F34013CB7100230B7202F001034B725A
:20328000F64B9B89C3F30722D3098B72C2F38013CB72C2F340130B73C2F300134B73C2F3CB
:2032A00081038B7302F00303CB73EC4B1A7B53080B7401234B74EA4B1B681A0ECA7419395D
:2032C000E74B1B68C3F307421402CC85E44B1B88C3F30722CB8D1343CB85E14B1A7814064C
:2032E0000C635B681A0E0B6B43EA02440C63DC4B5B68C3F307420B6B43EA02240C63D84BD8
:203300009B88C3F307220B6B13430B63D44B1A7934235A54D24B9B681A0E35235A54D04B51
:203320009B68C3F3074214068C63CD4B1B89C3F307228B6B43EA02448C63C94B1A7A8B6BF1
:2033400043EA02248C63C64BDB681A0E8B6B13438B63C34BDB68C3F307423C235B5C43EAE2
:2033600012143C235C5413071C0DCC87BC4B9B89C3F30722CB8F1343CB87B94B1A7B540881
:2033800040235C54012441235C5430BD70B50025B448046801E0B348046804F04500002899
:2033A000F9D004F0040028B103250420FEF7F5FB284670BD04F0010028B101250120FEF79D
:2033C000ECFB2846F5E740F2FF50FEF7E6FB2846EFE72DE9F04106460F464FF00008A14809
:2033E000056801E09F48056805F045000028F9D005F0040038B14FF003080420FEF7CDFBF3
:203400004046BDE8F08105F0010030B14FF001080120FEF7C2FB4046F3E7FEF73CFBB042A0
:2034200003D04FF010084046EBE740F2FF50FEF7B4FB0020FEF734FB044604F4604018B9EE
:20344000200C38804046DCE704F4005008B11320D7E704F4804008B11020D2E704F40040BB
:2034600008B10F20CDE74046CBE738B5002401200090FEF7EEFA10B92524204638BD7A48AA
:203480000068042828D000207849086002204860C02088600020C8604FF4806008610846A3
:2034A000FEF7DDFAFFF772FF04460CB12046E5E70020FEF7F5FA6A4908600420FEF7F0FA7E
:2034C000674948600820FEF7EBFA654988600C20FEF7E6FA6249C8606348006858B1624862
:2034E0000068012807D060480068062803D05E480068022816D100205C490860032048603C
:20350000402088600020C8604FF4806008610846FEF7A5FA69460320FFF75BFF04460CB184
:203520002046ABE75048006804282ED0BDF800004F490860BDF8000000044C4908600920D5
:203540004860C02088600020C8604FF4806008610846FEF784FAFFF719FF04460CB12046EB
:203560008CE70020FEF79CFA3C4908600420FEF797FA3A4948600820FEF792FA374988605A
:203580000C20FEF78DFA3549C8600024204675E770B500253348046801E03248046804F00B
:2035A00045000028F9D004F0040028B103250420FEF7F3FA284670BD40F2FF50FEF7EDFADE
:2035C0002846F8E770B500264FF480352548046802E06D1E2348046804F0450008B9002D17
:2035E000F7D115B104F0040028B103260420FEF7D4FA304670BD04F0400028B10026402026
:20360000FEF7CBFA3046F5E73046F3E770B500254FF4803400E0641E24B18020FEF7B2FA95
:203620000028F8D014B90325284670BD40F2FF50FEF7B3FA2846F8E7F8B500200090002518
:20364000002400260027EE200A4908750020086048608860C860086108460DE07421002082
:2036600084210020342C01403C0000200C22002040000020F4210020FEF7C7F90320FEF7D8
:20368000E4F90120FEF7DEF90020FD49086048608860C8604FF4806008610846FEF7DFF933
:2036A000FFF7B4FF00909DF8000010B19DF80000F8BD4FF4D570F2490860082048604020D6
:2036C00088600020C8604FF4806008610846FEF7C6F9FFF777FF00909DF8000020B90120A1
:2036E000E8490860870712E00020E549086037204860402088600020C8604FF480600861E0
:203700000846FEF7ACF93720FFF785FA00900020DB49086037204860402088600020C8602A
:203720004FF4806008610846FEF799F93720FFF772FA00909DF80000002851D13BE00020C5
:20374000CF49086037204860402088600020C8604FF4806008610846FEF781F93720FFF7C4
:203760005AFA00909DF8000010B19DF800009FE7C5483843C24908602920486040208860C0
:203780000020C8604FF4806008610846FEF767F9FFF7FEFE00909DF8000010B19DF8000045
:2037A00086E70020FEF77CF90546012080EAD57080F00106641C1EB94FF6FF708442BED31E
:2037C0004FF6FF70844204D31B2000909DF800006EE705F08040050002D00220A9490860DB
:2037E0009DF8000064E708B500200090FFF7DAF8FFF73BF9FEF7FEF8FFF71EFF00909DF867
:20380000000010B19DF8000008BDFFF72EFE00909DF8000010B19DF80000F5E706209B490A
:2038200008750020086048608860C86008610846FEF7EBF89648FFF73EFC00909DF8000009
:2038400030B99349B1F84C100804FFF71CFC00909DF8000020B94FF40060FFF7CEFB009094
:203860009DF80000D0E770B50446002514B92625284670BD874800880004814908600D20FB
:203880004860402088600020C8604FF4806008610846FEF7E4F80D20FFF7BDF905460DB163
:2038A0002846E6E70020FEF7FBF820602846E0E708B5012000909DF8000008BD08B500206B
:2038C0000090FFF7F5FF012809D16846FFF7CBFF08B1FF2008BD0098C0F34320FAE7FF20B2
:2038E000F8E710B50424FFF7E9FF0446042C01D1002010BDFF2C01D10220FAE70120F8E7E5
:2039000010B500240020FEF7A0F8204610BD70B50446002600250020FEF7C2F800F00070F5
:2039200010B10E26304670BD40205549086010204860402088600020C8604FF48060086195
:203940000846FEF78CF81020FFF765F906460EB13046E8E74F480088000449490860372058
:203960004860402088600020C8604FF4806008610846FEF774F83720FFF74DF906460EB136
:203980003046D0E74FF0FF304349086040204860602088600220C86000200861012048618B
:2039A0000846FEF788F80020354908600D204860402088600020C8604FF4806008610846FF
:2039C000FEF74DF80D20FFF726F906460EB13046A9E70EE04FF40040FEF7D4F848B100250A
:2039E00004E0FEF78EF844F825006D1C082DF8D320342A48006840F22A6108400028E9D06A
:203A00000820FEF7BFF828B10820FEF7C6F80426304688E70220FEF7B5F828B10220FEF75B
:203A2000BCF8022630467EE72020FEF7ABF828B12020FEF7B2F80626304674E74FF400708F
:203A4000FEF7A0F830B14FF40070FEF7A6F80726304668E74FF0FF3504E0FEF752F82060AA
:203A6000241D6D1E4FF40010FEF78CF808B1002DF3D140F2FF50FEF790F8304653E7000056
:203A80000C2200203C00002000001080F4210020A42100204000002020220020342C01406F
:203AA00070B5044600260025FE48FFF730FF06460EB1304670BDFB48007885092570F94814
:203AC0000078C0F340156570F648857828026080F448C578608828436080F24805792806BA
:203AE0006060F0484579606840EA05406060ED488579606840EA05206060EA48C5796068D7
:203B000028436060E748057A2572457A6572807A0509A572E348C57A2802A081E148057B22
:203B2000A0892843A081DF48407B8508A573DD48407B00F00305E5733046BBE72DE9F041BA
:203B400007460D46144600260020D7490870D7490860D7490860D7490860D7480068022844
:203B600001D104026D0AD54804601020D3494860402088600020C8604FF480600861084617
:203B8000FDF76DFF1020FFF746F8064616B13046BDE8F0814FF0FF30C949086008464460E8
:203BA000902088600220C86000200861012048610846FDF780FFC14805601120BF494860C0
:203BC000402088600020C8604FF4806008610846FDF745FF1120FFF71EF806460EB1304685
:203BE000D6E7012140F22A30FDF7BBFF0120FDF7B4FF21463846FEF7C9FF3046C8E72DE907
:203C0000F04180460D4614461E4600270020A6490870A64908600120A54908600020A54912
:203C20000860A5480068022801D104026D0AA34804601020A1494860402088600020C860AD
:203C40004FF4806008610846FDF709FF1020FEF7E2FF074617B13846BDE8F0814FF0FF3071
:203C60009749086006FB04F04860902088600220C86000200861012048610846FDF71BFFCE
:203C80008E48056012208D494860402088600020C8604FF4806008610846FDF7E0FE1220CB
:203CA000FEF7B9FF07460FB13846D5E7012140F22A30FDF756FF0120FDF74FFF06FB04F1C0
:203CC0004046FEF763FF3846C6E710B5002400207A4908600C204860402088600020C86044
:203CE0004FF4806008610846FDF7B9FE0C20FEF792FF0446204610BD70B500256C1E00E05C
:203D0000641E7048006838B96848006820B96648007808B9002CF3D100206A490860441EAB
:203D200000E0641E63480830006800F4005008B1002CF6D15E480068012802D1FFF7C5FF22
:203D400005460CB905B9042540F2FF50FDF725FF5548007810B15448007870BD2846FCE76B
:203D60002DE9F04107460D461446002600204E4908704E4908604E4908604E4908604E481A
:203D80000068022801D104026D0A4C48046010204A494860402088600020C8604FF480602C
:203DA00008610846FDF75BFE1020FEF734FF064616B13046BDE8F0814048056018203F495B
:203DC0004860402088600020C8604FF4806008610846FDF744FE1820FEF71DFF06460EB147
:203DE0003046E7E74FF0FF303549086008464460902088600020C8600861012048610846D8
:203E0000FDF759FE012140F22A30FDF7AAFE21463846FEF779FE0120FDF79FFE3046C9E7E4
:203E20002DE9F04180460F4615461E46002400201D4908701D49086001201D490860002062
:203E40001C4908601C480068022801D105027F0A1A480560102019494860402088600020D4
:203E6000C8604FF4806008610846FDF7F8FD1020FEF7D1FE044614B12046BDE8F08112487E
:203E8000008800040D49086037204860402088600020C8604FF4806008610846FDF7DFFD9F
:203EA000372013E094210020480000204C000020440000202C2C01403C0000200C22002068
:203EC000202200205000002040000020FEF7A3FE04460CB12046D0E7FA4806601720F949D5
:203EE0004860402088600020C8604FF4806008610846FDF7B4FD1720FEF78DFE04460CB14D
:203F00002046BAE7EF4807601920EE494860402088600020C8604FF4806008610846FDF786
:203F20009EFD1920FEF777FE04460CB12046A4E74FF0FF30E449086006FB05F048609020FA
:203F400088600020C8600861012048610846FDF7B2FD012140F22A30FDF703FE0120FDF755
:203F6000FCFD06FB05F14046FEF7CEFD204684E770B500256C1E00E0641ED448006838B98F
:203F8000D348006820B9D348007808B9002CF3D10020CE490860441E00E0641ECE480068A0
:203FA00000F4805008B1002CF7D1CC480068012802D1FFF78AFE05460CB905B9042540F271
:203FC000FF50FDF7EAFDC348007810B1C148007870BD2846FCE7C048006800F4405008B1C7
:203FE000012070470020FCE77CB504460025002001900090BA4800880004B24908600D20E7
:020000040800F2
:204000004860402088600020C8604FF4806008610846FDF724FDB0480068009002E0AE48B1
:2040200000680090009800F045000028F7D0009800F0040028B103250420FDF7AEFD28460E
:204040007CBD009800F0010028B101250120FDF7A4FD2846F4E7FDF71EFD009000980D2834
:2040600002D010252846EBE740F2FF50FDF795FD0020FDF715FD01900198C0F343202070FC
:2040800098490198084008B92846D9E7019800F0004008B11C20D3E7019800F0804008B1F5
:2040A0000920CDE7019800F0005008B10A20C7E7019800F0805008B10B20C1E7019800F04B
:2040C000006008B10C20BBE7019800F0806008B10D20B5E7019800F0807008B10E20AFE718
:2040E000019800F4000008B10F20A9E7019800F4800008B11020A3E7019800F4001008B1E5
:2041000011209DE7019800F4801008B1122097E7019800F4002008B1132091E7019800F4C6
:20412000802008B114208BE7019800F4003008B1152085E7019800F4803008B116207FE7D7
:20414000019800F4004008B1172079E7019800F4804008B1182073E7019800F4005008B114
:2041600019206DE7019800F0080008B11A2067E7284665E72DE9FC4106460F4600240025E9
:2041800000200190009058484068202101EA105018B925242046BDE8FC814F483038006801
:2041A000C0B2801C5149B1FBF0F001900020FDF777FC00F0007010B10E242046EBE74C4894
:2041C0000068022801D1760A7F0A4948006838B147480068012803D04548006802282BD182
:2041E00038480660202037494860402088600020C8604FF4806008610846FDF730FC2020A7
:20420000FEF709FD04460CB12046C4E72D48076021202C494860402088600020C8604FF47E
:20422000806008610846FDF71AFC2120FEF7F3FC04460CB12046AEE700202249086026207D
:204240004860402088600020C8604FF4806008610846FDF704FC2620FEF7DDFC04460CB13D
:20426000204698E7002500E06D1C01988542FBD36846FFF7B9FE04464FF0FF3504E06846F3
:20428000FFF7B2FE04466D1E45B13CB99DF800000728F4D09DF800000628F0D020467AE7E6
:2042A00010B54FF48070FDF77CFC50B10020094908704FF48070FDF77FFC01200449086037
:2042C00050E017E00C22002020220020500000204C00002048000020342C014044000020BE
:2042E0004000002008E0FFFD74210020C0D401003C0000200220FDF754FC30B10220FDF777
:204300005BFC0220294908702CE00820FDF749FC30B10820FDF750FC04202449087021E07A
:204320002020FDF73EFC30B12020FDF745FC06201E49087016E01020FDF733FC30B110205A
:20434000FDF73AFC0520194908700BE04FF40070FDF727FC30B14FF40070FDF72DFC0720A7
:204360001249087000214CF23A30FDF7FAFB0F48007810BD10B50E48006800F0C05040B1A8
:2043800001200C4908604FF0C25109485830FCF734F910BD0146002002E04910421CD0B2A5
:2043A0000129FAD170470448406C7047480000200064024050000020A421002070B50346D1
:2043C0000C4603E014F8015B03F8015B1500A2F10102F7D170BD30B5034601E003F8011B23
:2043E0001400A2F10102F9D130BDF0B503461C460D46002000BF1600A2F1010207D014F84B
:20440000017B15F801CBA7EB0C063000F3D0F0BD024600E0521C107810B110788842F9D108
:204420001078704770B50446207910B3256B607801232A4604F13401FEF703FA08B1012080
:2044400070BD00202071606AA84212D8E169606A0844A8420DD9E67809E0E06905446078FF
:2044600001232A4604F13401FEF7EBF9761E022EF3D20020E4E770B504460D46206BA842FA
:2044800010D02046FFF7CEFF08B1012070BD607801232A4604F13401FEF76BF908B1012043
:2044A000F4E725630020F1E770B504462046FFF7B9FF0546002D59D1207803284FD16079C0
:2044C00000284CD0002020634FF40072002104F13400FFF780FF552184F83212AA2184F804
:2044E0003312522084F83400522135200155612136200155412137200155722184F81812C1
:2045000084F81912412184F81A12612184F81B12217C84F81C12208A010A84F81D1220698F
:20452000010C84F81E122069010E84F81F12217B84F82012A089010A84F82112E068010CFB
:2045400084F82212E068010E84F823126078012304F134016269FEF774F900206071607887
:2045600000221146FEF7D2F900B10125284670BD0246891E9069801E884201D80020704790
:204580009378D06A01FB0300F9E72DE9F04105460C46022C02D3A869A04202D80120BDE87D
:2045A000F0812878012804D002282CD003285AD13DE0274607EB5707686A00EB57212846F4
:2045C000FFF759FF00B14EE0C7F3080105F1340010F801807F1C686A00EB57212846FFF704
:2045E0004AFF00B13FE0C7F3080105F13400405C48EA002804F0010010B14FEA1810CEE7F3
:20460000C8F30B00CBE7686A00EB14212846FFF732FF00B127E040F2FF1000EA440105F17D
:2046200034000E183078717840EA0120B7E7686A00EBD4112846FFF71EFF00B113E040F2AD
:20464000FF1000EA840105F134000E18F0780006B17840EA0140717840EA01203178084362
:2046600020F070409BE700BF4FF0FF3097E72DE9F04705460E461746022E02D3A869B042FC
:2046800002D84FF002088AE02878012804D0022841D003287DD154E0B14609EB5909686AE9
:2046A00000EB59212846FFF7E6FE8046B8F1000F00D071E0C9F3080105F134000C1806F0A5
:2046C000010020B1F9B2207861F31F1000E03846207009F1010901202871686A00EB59215F
:2046E0002846FFF7C8FE8046B8F1000F00D053E0C9F3080105F134000C1806F0010010B144
:20470000C7F3071005E0207800F0F000C7F303210843207040E0686A00EB16212846FFF73A
:20472000AAFE8046B8F1000F00D035E040F2FF1000EA460105F134000C182770380A607005
:204740002AE0686A00EBD6112846FFF794FE8046B8F1000F00D01FE040F2FF1000EA8601B6
:2047600005F134000C18E0780006A17840EA0140617840EA01202178084300F07040074317
:204780002770380A6070380CA070380EE07003E0FFE74FF0020800BF00BF012028714046B6
:2047A000BDE8F0872DE9F04104460E46022E02D3A069B04201D8022725E000271FE0314654
:2047C0002046FFF7E2FE054605B91BE0012D01D1022717E0681C08B9012713E00022314680
:2047E0002046FFF744FF074607B10BE02069401C20B12069401C2061012060712E46A0699F
:20480000B042DCD800BF3846BDE8F0812DE9F04704468946B9F1000F06D1E76817B1A06989
:20482000B84211D801270FE049462046FFF7ADFE0646022E02D20120BDE8F087A069B04260
:2048400001D93046F8E74F463D4600BF6D1CA069A84204D80225BD4201D90020ECE7294698
:204860002046FFF792FE064606B909E0701C08B1012E01D13046DFE7BD42E7D10020DBE73D
:2048800000BF6FF0704229462046FFF7F0FE8046B8F1000F08D1B9F1000F05D02A464946AB
:2048A0002046FFF7E4FE8046B8F1000F09D1E5602069401C68B12069401E206101206071C5
:2048C00007E0B8F1010F02D14FF0FF3000E0012005462846B0E770B503460D46586A021D04
:2048E000680A1E68B678B0FBF6F400BF02CA09B9002070BD8C4200D202E0641A121DF5E758
:2049000000BF10682044F4E72DE9F04104460E46E680A568012D03D020688069A84202D893
:204920000220BDE8F0812DB920680078032801D12068856A65B9E56020680089B04201DCA2
:204940000220EEE72068806A00EB1610206120E020688078070112E029462068FFF715FEE2
:204960000546681C08B90120DBE7022D03D320688069A84201D80220D3E7F01B86B2BE426C
:20498000EADAE56029462068FFF7F2FD00EB161020612068343006F00F0100EB41106061B1
:2049A0000020BEE72DE9F0410446884600BFE088401C86B20EB1206910B90420BDE8F081CD
:2049C00006F00F0000286DD12069401C2061E06828B920680089B04264DC0420EEE7206819
:2049E0008078401E00EA161000285BD1E1682068FFF7CBFD0546012D01D80220DEE7681CB1
:204A000008B90120DAE720688069A84244D8B8F1000F01D10420D1E7E1682068FFF7F6FE5B
:204A200005460DB90720C9E7012D01D10220C5E7681C08B90120C1E72068FFF7F3FC08B18C
:204A40000120BBE7216801F134004FF400720021FFF7C1FC29462068FFF78AFD21680863F3
:204A600000270FE00120216808712068FFF7DAFC08B10120A2E72068006B401C2168086303
:204A8000781CC7B220688078B842EBDC2068006BC01B2168086300BFE56029462068FFF715
:204AA00067FD2061E6802068343006F00F0100EB41106061002081E72DE9F04104460E464F
:204AC00000212046FFF720FF0546EDB9002700BF21692068FFF7CFFC054605B113E06069D3
:204AE0000078E52802D06069007820B9781C0746B04201D107E0002701212046FFF752FFC3
:204B00000546002DE4D000BF2846BDE8F08110B502468C7ECB7E44EA03201378032B05D1E6
:204B20000C7D4B7D44EA032340EA034010BD81760B0AC3760A0C02750B0E437570472DE926
:204B4000F041044600212046FFF7DEFE054615B12846BDE8F08100BF21692068FFF78BFC9E
:204B6000054605B116E0666937780FB9042511E0F07A00F0080030B90B223046A169FFF7F0
:204B800034FC00B906E000212046FFF70BFF0546002DE1D000BF2846DBE72DE9F047044610
:204BA0008946042526E021692068FFF764FC054605B122E0D4F8148098F800600EB904254C
:204BC0001BE098F80B0000F03F07E52E0BD02E2E09D00F2F07D0082F01D1012000E00020A7
:204BE000484500D109E000212046FFF7DBFE054605B102E020690028D5D100BF0DB1002041
:204C000020612846BDE8F08770B5044601212046FFF752FF054695B921692068FFF72BFC83
:204C2000054665B9202200216069FFF7D4FB0B22D4E90501FFF7C2FB0120216808712846E6
:204C400070BD70B50446E1882046FFF75DFE05465DB921692068FFF70EFC05462DB9E520EF
:204C600061690870012021680871284670BD2DE9F35F8A46DAF8007000E07F1C38782F2838
:204C8000FBD038785C28F8D0009886690B2220213046FFF7A0FB0025A946AB464FF00808FD
:204CA00000BF58460BF1010B3C5C202C03DD2F2C01D05C2C00D136E02E2C01D0C1450ED31E
:204CC000B8F1080F01D12E2C02D00620BDE8FC9F4FF008094FF00B08A806050EE1E7802CD9
:204CE00005DB45F00305A4F18000F7490C5C2146F6A0FFF78DFB08B10620E7E7412C04DB66
:204D00005A2C02DC45F0020508E0612C06DB7A2C04DC45F00105A4F12000C4B2484609F129
:204D200001093454BDE700BF07EB0B00CAF80000202C01DC042000E000200446B9F1000F6F
:204D400001D10620C2E73078E52801D105203070B8F1080F01D1A806050E05F003000128F2
:204D600001D144F0100405F00C00042801D144F00804F4720020A9E7F0B505460B4603F18F
:204D800009022F69002F40D06869067B00210AE0445C202C00D108E0052C00D1E52400BF65
:204DA00002F8014B491C0829F2D300BF077A202F0FD02E2702F8017B082107E0445C202C1D
:204DC00000D105E000BF02F8014B491C0B29F5D300BFC77A1F72C77F4FEA076C877F4CEAF8
:204DE000074C477F4CEA072790F81CC047EA0C071F6090F818C0477E4CEA07279F8090F8DF
:204E000016C0C77D4CEA0727DF8000271770F0BD2DE9F3410446019800782F2803D00198F2
:204E200000785C2802D10198401C01900020A06001980078202807D200212046FFF764FDED
:204E400005460020606129E000BF01A92046FFF70EFF054605B120E02046FFF770FE054635
:204E6000A069C67A45B1042D00D016E000BF06F0040000B9052510E006F0040000B10CE0D9
:204E80006769F87A00F0100008B9052505E039462068FFF73CFEA060D7E700BF2846BDE839
:204EA000FC8170B504460D46607801232A4604F13401FDF75EFC08B1032070BD94F83212F6
:204EC00094F8330241EA00204AF65521884201D00220F2E794F86D00010694F86C0041EA57
:204EE000004194F86B0041EA002094F86A10084320F07F407949884201D10020DDE794F841
:204F00008900010694F8880041EA004194F8870041EA002094F88610084320F07F406F492F
:204F2000884201D10020C8E70120C6E72DE9F74F88B00898006801900198007830380790FB
:204F4000079809280AD8019840783A2806D10198801C019008990198086001E00020079015
:204F60000021099801600798022803D30B200BB0BDE8F08F5A49079851F820400CB90C2089
:204F8000F5E709980460207878B16078FDF7DCFB804608F0010040B90A9820B108F00400A5
:204FA00008B10A20E3E70020E1E700202070079860706078FDF7A2FB804608F0010008B15C
:204FC0000320D4E70A9820B108F0040008B10A20CDE74FF0000949462046FFF762FF05460E
:204FE00000BF012D21D14FF0000BBBF1000F03D0ABF1010000F0FF0B4FF4DF7000EB0B11CA
:2050000004F134000F18387978B1F87A0106B87A41EA0041787A41EA0020397A40EA01092B
:2050200049462046FFF73DFF0546032D01D101209DE70DB10D209AE73F20015D94F8400062
:2050400041EA0020B0F5007F01D00D208FE74A20015D94F84B0041EA002ABAF1000F0ED1E0
:2050600094F85B00010694F85A0041EA004194F8590041EA002094F8581040EA010AC4F8DB
:205080001CA04420065DE670012E03D0022E01D00D206CE70AFB06FA4120005D0646A07095
:2050A00016B1701E304008B10D2060E74520015D94F8460041EA00202081207A00F00F00E4
:2050C00080B10D2053E700005EBB0008222A2B2C3A3B3C3D3E3F5B5D7C7F0000464154007B
:2050E000540000204720015D94F8480041EA00200690069870B994F85700010694F856002F
:2051000041EA004194F8550041EA002094F85410084306904220015D94F8430041EA00204C
:205120000290029808B90D2021E702985044218900EB11100590DDE90501814201D20D2045
:2051400015E7DDE90510401AA178B0FBF1F00490049808B90D200AE7012540F6F67104980B
:20516000884200D302254FF6F6710498884200D303250498801CA061C4F820900298484493
:20518000606205984844E062032D16D1208908B10D20ECE694F86300010694F8620041EA5B
:2051A000004194F8610041EA002094F860100843A062A0698000039014E0208908B90D2086
:2051C000D5E6606A5044A062022D02D1A069400007E0207E00F00100A16901EB410100EBD0
:2051E00051000390E169039800F2FF10B1EB502F01D20D20BBE64FF0FF3020610020E060DA
:20520000032D5CD1607194F8641094F8650041EA0020484460616078012304F134016269E6
:20522000FDF7A7FAF0BB94F8321294F8330241EA00204AF65521884241D13720005D010605
:205240003620005D41EA00413520005D41EA002094F834100843FE49884230D194F81B025C
:20526000010694F81A0241EA004194F8190241EA002094F818120843F64988421FD194F89B
:205280002302010694F8220241EA004194F8210241EA002094F820120843E06094F81F02D6
:2052A000010600E00BE094F81E0241EA004194F81D0241EA002094F81C12084320612570F3
:2052C000E5480088401C80B2E3490880E08000202063207100BF4AE670B505462C464CB175
:2052E000206838B12068007820B12068C088A188884201D0092070BD21684878FDF724FA27
:2053000000F0010008B10320F5E70020F3E70246022A01DB0B207047D04850F822300BB14A
:205320000020187009B100200870CC4840F822100020F0E72DE9F7438AB0054616461DB9F7
:2053400009200DB0BDE8F0830020286006F01F0626F0010203A90BA8FFF7E8FD0746002FBD
:205360007ED1CDF824D003A80B99FFF751FD0746089C0FB904B9062706F01C00002851D094
:205380004FB1042F03D103A8FFF73EFC074646F00806089C09E0E07A00F0110008B10727CB
:2053A00003E006F0040000B10827002F39D106F00800002835D0FDF7EBFA804684F80E8023
:2053C0004FEA1821E1734FEA184121744FEA186161740020E072207700216177A177E177E7
:2053E00021460398FFF793FB814600212046FFF79EFB012003990871B9F1000F11D00398DF
:20540000D0F8308049460398FFF7CCF9074647B9A9F101000399C86041460398FFF72BF848
:2054200007460EE06FB9E07A00F0100008B1042707E006F0020020B1E07A00F0010000B11F
:20544000072747B906F0080008B146F020060398006BE8612C621FB9AE712146039800E055
:2054600016E0FFF754FB2861E07F0106A07F41EA0041607F41EA0020217F0843E8600020FA
:20548000A860A8616862039828600398C088A880384656E72DE9FF4F83B0044615469A462C
:2054A000DDF810B00020CAF800002046FFF714FF0290029818B1029807B0BDE8F08FA07983
:2054C00000F0800008B10220F6E7A07900F0010008B90720F0E7D4E90210401A009000988A
:2054E000854200D9009DC6E02089C0F30800002870D120688078401EA16800EA512000F0CA
:20550000FF09B9F1000F25D1A06810B9206901900CE0606A28B12046A168FFF7DCF901908F
:2055200004E061692068FFF730F801900198022805D2A07940F08000A0710220BCE70198B4
:20554000401C28B9A07940F08000A0710120B3E70198606161692068FFF70AF806462EB9A2
:20556000A07940F08000A0710220A5E74E444FEA5528B8F1000F2ED009EB0800216889781F
:20558000884203D920688078A0EB090808F0FF032168487832465946FDF7EBF828B1A07926
:2055A00040F08000A071012086E7A07900F0400068B1A069801B404509D2A169891B0BEB92
:2055C00041204FF4007204F12801FEF7F7FE4FEA482746E029E0A069B04225D0A07900F0DD
:2055E000400090B121684878012304F12801A269FDF727F928B1A07940F08000A0710120AC
:205600005AE7A07920F04000A071216848780123324604F12801FDF7ACF828B1A07940F012
:205620008000A071012047E7A6612089C0F30800C0F50077AF4200D92F462089C0F308024E
:2056400004F1280011183A465846FEF7B7FE07E052526141727241615C0000205400002099
:2056600000BFBB44A0683844A060DAF800003844CAF80000ED1B002D7FF436AF00201BE729
:205680002DE9FF4F83B0044615469B46049801900020CBF800002046FFF71EFE0290029839
:2056A00018B1029807B0BDE8F08FA07900F0800008B10220F6E7A07900F0020008B9072078
:2056C000F0E7E0682844E168884200D20025D6E02089C0F3080000287ED120688078401EC6
:2056E000A16800EA512000F0FF0ABAF1000F32D1A06858B9D4F81080B8F1000F13D100215E
:205700002068FFF783F8804620610CE0606A28B12046A168FFF7DFF8804604E06169206882
:20572000FFF774F88046B8F1000F00D1AAE0B8F1010F05D1A07940F08000A0710220B1E70B
:2057400008F1010028B9A07940F08000A0710120A8E7C4F81480A07900F0400090B1216881
:205760004878012304F12801A269FDF76AF828B1A07940F08000A071012093E7A07920F04F
:205780004000A07161692068FEF7F2FE06462EB9A07940F08000A071022083E756444FEA15
:2057A0005529B9F1000F30D00AEB090021688978884203D920688078A0EB0A0909F0FF036B
:2057C0002168487832460199FDF73BF838B1A07940F08000A07100E02EE0012062E7A06923
:2057E000801B48450ED2A069801B019A02EB40214FF4007204F12800FEF7E0FDA07920F047
:205800004000A0714FEA49272DE0A069B04212D0D4E9020188420ED2216848780123324655
:2058200004F12801FCF7A5FF28B1A07940F08000A071012036E7A6612089C0F30800C0F5A2
:205840000077AF4200D92F462189C1F3080204F1280150183A460199FEF7B0FDA07940F09F
:205860004000A07100BF019838440190A0683844A060DBF800003844CBF80000ED1B002DA7
:205880007FF426AF00BFD4E90201884201D9A068E060A07940F02000A071002002E72DE9BC
:2058A000F04104462046FFF717FD0746002F4CD1A07900F02000002847D0A07900F04000B3
:2058C00078B121684878012304F12801A269FCF7B8FF10B10120BDE8F081A07920F04000FE
:2058E000A071E1692068FEF7C6FD0746002F2CD1256AE87A40F02000E872207B2877A08996
:20590000010A6977E068010CA977E068010EE97728462169FFF70BF9FDF73AF80646AE75E9
:20592000310AE975310C2976310E69760020A8740021E974A07920F02000A0710120216816
:2059400008712068FEF7B0FD07463846C3E770B504462046FFF7A3FF05460DB90020206011
:20596000284670BD2DE9FE4F04460D462046FFF7B3FC0290029810B10298BDE8FE8FA079AF
:2059800000F0800008B10220F7E7606A00287DD0681C002841D1D4F8248058F804AB4FF033
:2059A000020926696EB300BF00964FF0000B09F1020900BF01960BF1010B31462068FEF736
:2059C000E4FD0646012E05D8A07940F08000A0710220D2E7701C28B9A07940F08000A07192
:2059E0000120CAE70198401C8642E3D0D14504D848F804BB009848F8040B20688069B0422A
:205A0000D2D8606AC0F80090D14503D80020C8F8000050E0112002904DE0E068A84200D2D5
:205A2000E568A560002D46D0691E2046FEF753FF606161692068FEF79BFD07462FB9A079AF
:205A400040F08000A071022097E720688078401E691E00EA512007442089C0F3080050B373
:205A6000A069B84227D0A07900F0400098B121684878012304F12801A269FCF7E2FE30B150
:205A8000A07940F08000A071012076E714E0A07920F04000A0712168487801233A4604F15E
:205AA0002801FCF766FE28B1A07940F08000A071012062E7A761C1E0E068A84204D2A0797F
:205AC00000F0020000B9E568D4F808904FF00008C4F80880002D77D0206880784702B9F1F8
:205AE000000F11D0681EB0FBF7F1A9F10100B0FBF7F0814208D3A9F10100791E8843A060D5
:205B0000A0682D1A666918E02669AEB900212068FEF77CFE0646012E05D1A07940F0800047
:205B2000A071022029E7701C28B9A07940F08000A071012021E726616661EEB329E0A079A1
:205B400000F0020038B131462068FEF75FFE064636B93D461FE031462068FEF716FD064609
:205B6000701C28B9A07940F08000A071012004E7012E03D920688069B04205D8A07940F03E
:205B80008000A0710220F8E66661A0683844A060ED1BBD42D3D800BFA0682844A060C5F38C
:205BA000080048B131462068FEF7E2FC8046B8F1000F07D1A07900E006E040F08000A0711C
:205BC0000220DAE608EB55282089C0F3080050B3A069404527D0A07900F0400090B1216874
:205BE0004878012304F12801A269FCF72AFE28B1A07940F08000A0710120BEE6A07920F0DC
:205C00004000A071216848780123424604F12801FCF7AFFD28B1A07940F08000A0710120AD
:205C2000ABE6C4F81880D4E90201884205D9A068E060A07940F02000A07100BF02989CE67A
:205C400073B584B0044614B9092006B070BD0022214605A8FFF76AF90546266825BB01A8D4
:205C6000A06120460599FFF7D3F80546ADB9606958B16069C07A00F0100028B130466169BF
:205C8000FEF745FFA06000E0052535B9F088A08000212046FEF738FE0546042D00D1052512
:205CA00025B10020206001E0002020602846CCE7FEB505460E462846FFF70EFB04460CBBFC
:205CC0002EB900212846FEF71FFE04461AE0C5F818D000212846FEF760FF0446042C02D123
:205CE0000020286100246CB931462846FFF744F800212846FEF756FE0446042C02D1002056
:205D0000286100242046FEBD33B58BB00D46002204A90BA8FFF70AF904467CB901A80A9002
:205D200004A80B99FFF774F804463CB9099820B1294604A8FFF720F800E0062420460DB0AA
:205D400030BD2DE9F74F82B08B46002202A80499FFF7ECF8019004980468019800286ED11B
:205D6000A069801E2169814203D82069CBF8000065E094F800A00026BAF1010F1CD10227A0
:205D800000BF39462046FEF700FC804608F1010010B9012001900EE0B8F1010F02D1022097
:205DA000019008E0B8F1000F00D1761C781C0746A1698842E5D33AE0A769606A00904FF01F
:205DC0000009002500BFB9F1000F0ED10098421C014620460092FEF74EFB0190019800B1F0
:205DE00024E004F134054FF40079BAF1020F09D12878697840EA012000B9761CAD1CA9F1A5
:205E0000020910E0E8780006A97840EA0140697840EA01202978084320F0704000B9761C72
:205E20002D1DA9F10409781E0700CCD100BF2661BAF1030F01D101206071CBF800600198B4
:205E400005B0BDE8F08F70B504462046FFF744FA054655B9A07900F0800008B1022504E0BA
:205E6000A07900F0020000B90725002D36D1D4E9021088422DD9A068E060A07940F02000AE
:205E8000A071A06838B921692068FEF78BFC0546002020611DE061692068FEF776FB06467D
:205EA0000025701C00B90125012E00D1022585B920688069B0420CD96FF070426169206842
:205EC000FEF7D5FB054625B931462068FEF76AFC05461DB1A07940F08000A071284670BDEC
:205EE00071B591B001220AA911A8FFF71FF80446002C47D1CDF840D00AA81199FEF788FF64
:205F0000044600BF002C3DD10F9E0EB9062404E0F07A00F0010000B1072431460A98FEF777
:205F2000F6FD0546ECB9F07A00F01000C8B1022D01D2022415E01C220AA903A8FEF73EFAB5
:205F40000595022103A8FEF7DFFC04464CB9002103A8FEF722FE044604B90724042C00D1A6
:205F600000247CB90AA8FEF76CFE044654B925B129460A98FEF716FC04461CB90A98FEF7BC
:205F800093FA0446204612B070BD2DE9F1478BB0FCF7FEFC0646012204A90BA8FEF7C6FFD6
:205FA0000546002D7ED101A80A9004A80B99FEF72FFF054605B9082500BF042DF2D100215A
:205FC0000498FEF723FC0746002507B90725012F00D10225781C00B901251DB90498FEF7B1
:205FE00021FA0546002D5AD139460498FEF7C0FA8146049800F134044FF400720021204651
:020000040800F2
:20600000FEF7E9F90B2220212046FEF7E4F92E2020701020E072A675310AE175310C217623
:20602000310E617639462046FEF781FD2022214604F12000FEF7C2F92E2084F82100DDF8C4
:2060400018A004980078032804D10498806A504500D1AA46514604F12000FEF768FD0498F6
:2060600090F8028017E00498C0F8309009F101090120049908710498FEF7D4F9054605B171
:206080000CE04FF4007200212046FEF7A4F9A8F1010000F0FF08B8F1000FE4D100BF2DB9A3
:2060A00004A800E01DE0FEF7AFFD054625B139460498FEF777FB14E0099C1020E072A675DD
:2060C000310AE175310C2176310E617639462046FEF72DFD0120049908710498FEF7E4F99C
:2060E000054628460CB0BDE8F087F7B58AB00F461446012203A90AA8FEF718FF0646DEB90A
:20610000CDF824D003A80A99FEF782FE064600BF96B9089D0DB906260EE004F0270407EA14
:206120000400E97AA1430843E8720120039908710398FEF7B9F9064630460DB0F0BD73B5A3
:206140008AB00D46012203A90AA8FEF7EFFE0646EEB9CDF824D003A80A99FEF759FE0646BD
:2061600000BFA6B9089C0CB9062610E0A879A075E8880112E17528792076A888011261761C
:206180000120039908710398FEF78EF9064630460CB070BD2DE9F34198B00F46012211A943
:2061A00018A8FEF7C3FE0446002C79D111980A9001A8179011A81899FEF72AFE044600BF86
:2061C000002C6DD1169808B9042469E0169800F10B01152204A8FEF7F1F81C2211A90AA85F
:2061E000FEF7ECF839460AA8FEF712FE044604B90824042C54D10AA8FEF706FD0446002CE8
:206200004ED10F9D13220DF1120105F10D00FEF7D5F89DF8100040F02000E872012011998E
:2062200008710C991398884230D0E87A00F0100060B329461198FEF76AFC804641461198ED
:20624000FEF796F906460EB902241FE031461198FEF711F90446119800F15405B4B96878D9
:206260002E2813D111980078032806D111990C98896A884201D1002000E00C98064631467D
:206280002846FEF754FC01201199087144B911A8FEF7D7FC04461CB91198FEF705F9044684
:2062A00020461AB0BDE8F0812DE9F74F8EB091460E98022803DB0B2011B0BDE8F08F0F98C2
:2062C000012801DD1320F7E7A9F1010000EA090008B11320F0E7FE490E9851F820B0BBF1A3
:2062E000000F01D10C20E7E700208BF800000E980B9000200A900B98FCF700FA009000986D
:2063000000F0010008B10320D6E7009800F0040008B10A20D0E700BF03AA01210B98FCF7A9
:20632000F5FA10B90398802801D20120C4E70F9808B1002000E03F2080460398A0EB080010
:206340000390B9F1000F13D14FF4FA610398B0FBF1F009904FF0000A01E00AF1010ADD485A
:2063600030F81A1009988142F7D8DB4830F81A904FEA5929B9F1000F01D14FF00109B9F16A
:20638000800F01D94FF080090398B0FBF9F7012540F6F670874200D302254FF6F67087429D
:2063A00000D30325032D0AD1082000EB870000F2FF10460A202002900020019011E0012D4A
:2063C00005D107EB4700401C4008C01C01E07800001D064606F2FF10460A01200290202022
:2063E0000190029840440690069830440590019905980844049004984844A0EB0800039943
:20640000884201D90E2057E708AA03210B98FCF77DFA28B9089818B10898B0F5004F01D9D1
:2064200001200890089904980844401E491E8843089008990498081A0890032D08D1089951
:20644000029808440290089906980844069001E008980644DDE90201081A811B0198081A96
:20646000B0FBF9F7022D03D140F6F670874205D3032D05D14FF6F670874201D20E201BE7C4
:20648000012D02D0022D0CD102E001200C900BE00398B0F5803F01D2042000E006200C90CE
:2064A00002E00C200C9000BF00BF00BF0F9810B1F0200D9044E04FF4007200210BF13400B6
:2064C000FDF789FF0BF5F97401206070A0700020E0700C982071FE206071039840443F21BF
:2064E000B0FBF1F0FF21B0FBF1F008903F21089841EA9000A0710898E0713F2020720021FD
:206500006172A172E172039820730398010A61730398010CA1730398010EE17355218BF8E7
:206520003212AA218BF83312012300220BF134010B98FCF786F908B10120BDE6F8200D90C6
:206540000BF134044FF4007200212046FDF743FF0B2262A12046FDF731FF4FF4007A84F8A2
:206560000BA04FEA1A21217384F80D900298A0730298010AE17301202074032D01D10020D2
:2065800001E04FF40070824684F811A04FEA1A21A1740398B0F5803F05D20398E074039889
:2065A000010A217510E0039884F820000398C0F30721212001550398C0F3074122200155D8
:2065C0000398010E232001550D9860753F20207600216176FF20A076E17684F81C804FEA34
:2065E000182161774FEA1841A1774FEA1861E177FCF7CEF90890032D3ED1089884F84300E6
:206600000898C0F30721442001550898C0F30741452001550898010E4620015584F8246084
:20662000C6F3072125200155C6F3074126200155310E27200155022084F82C0000212D202D
:2066400001552E2001552F200155012084F8300031200155062084F832003320015580200A
:2066600084F84000292084F8420013221EA104F14700FDF7A3FE1FE0089884F827000898B0
:20668000C0F30721282001550898C0F30741292001550898010E2A200155A675310AE1754C
:2066A000802084F82400292084F82600132213A104F12B00FDF782FE552084F8FE01AA2177
:2066C00040F2FF1001550123424621460B981FE054000020DEBB0008F4BB0008EBFE904DDC
:2066E00053444F53352E30004E4F204E414D45202020204641543332202020004E4F204EC5
:20670000414D4520202020464154202020202000FCF797F808B10120CEE5032D06D1012371
:2067200008F1060221460B98FCF78BF8069807904FF0000A61E04FF4007200212046FDF7E9
:206740004AFE0D980890032D14D0012D01D1FE4801E06FF0FF000899084308900898207067
:206760000898000A60700898000CA0700898000EE07019E0089860F0FF0008900898207035
:206780000898000A60700898000CA0700898000EE070FF202071FF216171A171E17120722D
:2067A0006172A1720F21E1720798411C02460123079121460B98FCF744F808B101207BE5FD
:2067C0004FF4007200212046FDF705FE012008900EE00798411C02460123079121460B98D5
:2067E000FCF72FF808B1012066E50898401C08900898B042EDD30AF1010ABAF1000F9AD04A
:20680000032D01D1484600E00198824600BF0798411C02460123079121460B98FCF711F8E2
:2068200008B1012048E5AAF101005FEA000AEED1032D46D15220207060706120A070412098
:20684000E070722084F8E401722140F2E51001554121401C01556121401C0155781E84F88B
:20686000E801C0F3072140F2E9100155781EC0F307414FF4F5700155781E010E40F2EB1072
:206880000155022084F8EC01002140F2ED100155401C0155401C0155552084F8FE01AA2152
:2068A00040F2FF100155012308F1010221460B98FBF7C7FF012308F1070221460B98FBF73D
:2068C000C0FF002211460B98FCF720F808B10120F2E40020F0E42DE9FC47074688469146E3
:2068E00000243E4611E06B46012201A94846FEF7D1FD0098012800D00BE09DF8045006F8CD
:20690000015B641C0A2D00D103E0A8F10100A042E9DC00BF0020307014B13846BDE8FC8785
