:020000040800F2
:10000000880E0020DD000008E5000008E700000879
:1000100000000000000000000000000000000000E0
:10002000000000000000000000000000E9000008DF
:100030000000000000000000EB000008ED000008D8
:10004000EF000008EF000008EF000008EF000008D4
:10005000EF000008EF000008EF000008EF000008C4
:10006000EF000008EF000008EF000008EF000008B4
:10007000EF000008EF000008EF000008EF000008A4
:10008000EF000008EF000008EF000008EF00000894
:10009000EF000008EF000008EF000008EF00000884
:1000A000EF000008EF000008EF000008EF00000874
:1000B000EF000008EF000008EF0000080448854644
:1000C00000F042F80048004741140008C046C0460E
:1000D000880E002080F3088870470000044880479D
:1000E00004480047FEE7FEE7FEE7FEE7FEE7FEE71F
:1000F00061070008BD00000830B50B46014600202E
:100100002022012409E00D46D5409D4205D31D461D
:100110009540491B2546954040191546521E002D15
:10012000F1DC30BDD2B201E00270401C491EFBD2AE
:1001300070470022F6E710B513460A4604461946F2
:10014000FFF7F0FF204610BD064C0125064E05E0E6
:10015000E36807CC2B430C3C98471034B442F7D3E8
:10016000FFF7B0FF541F0008741F0008F0B40668C2
:100170004D000324AC40A64306600668AA4016431F
:1001800006604768012216468E40B743476086687E
:10019000A6438660C668A643C660C468AA401443E6
:1001A000C460CA0892001018026A4907C90E0F24D9
:1001B0008C40A2430262026A8B401A430262F0BC86
:1001C0007047000010B50023012208210148FFF705
:1001D000CDFF10BD000C0050FF210131034A002863
:1001E00001D091617047916270470000000C00508F
:1001F000F0B583B000F04AFA052000230122042163
:100200000007FFF7B3FF072000F06CFA00F08AF94F
:10021000524D0A24FF20287050485149012200F015
:1002200083FA641E2406240EF4D1002001460090B7
:1002300000F09EF901285FD1861EFF21AB31082016
:1002400000F096F9012807D00021A92000F090F9CC
:10025000012840D8A92442E001AFFF2028703F4880
:100260000122411C00F060FA68783855641CE4B241
:10027000042CF2D368468079012838D16846C079C9
:10028000AA2803D033E0761E02D107E00124A40798
:100290002146A92000F06CF90028F4D100213A2071
:1002A00000F066F9002822D10024FF2028702B4896
:1002B0000122411C00F038FA68783855641CE4B219
:1002C000042CF2D368460079400601D50C2000E0EA
:1002D000042000900BE0012401E0761E05D00021EF
:1002E000204600F045F90028F7D1002000900121B8
:1002F0004902102000F03CF9009810270526A8704C
:100300003607B7610098002825D0032440071CD584
:1003100000F008F91349062000F02AF9002813D14B
:100320004021114800F0CAF800280DD00E48007C8A
:100330000007000F012807D1FF202870074802247A
:10034000411C012200F0F0F9B761204600F0CAF923
:10035000002003B0F0BD012003B0F0BD0C00002070
:100360000D000020F1FFFF8014000020F7B52C4D98
:100370000646A87882B00C46000700D44C0200F074
:10038000D1F80498012801D9122000E0112021465B
:10039000009000F0EDF8002838D101277F020024FA
:1003A000E443FF2028701E481E49012200F0BCF9DA
:1003B0006878641EFE2802D0002CF2D11FE0FF22D4
:1003C00039463046FFF7AEFE31463A46002000F08F
:1003D000ABF9FF20287012480122411C00F0A4F95B
:1003E000FF2028700E480122411C00F09DF904985E
:1003F000FF36401EFF36023604900028CFD1009809
:10040000122803D100210C2000F0B2F810200521A1
:10041000090788610498002800D0012005B0F0BDCC
:100420000C0000200D000020F8B5234F0546B878D9
:1004300014460E46000700D44E0200F073F8012C5B
:100440000ED0B8784007800F03D02146972000F0E7
:100450008FF83146192000F08BF800280ED020E0EC
:100460003146182000F084F800281AD1FE212846D1
:1004700000F0C8F8002814D0002412E0FC2128461F
:1004800000F0C0F8002805D0FF35FF35641E0235A6
:10049000002CF3D1FD21002000F0B4F8002800D199
:1004A00001241020052109078861002C01D00120BA
:1004B000F8BD0020F8BD00000C000020F8B50024B5
:1004C000164D0E460746E443FF2028701348144992
:1004D000012200F029F96878641EFE2803D0002C60
:1004E000F2D10020F8BDFF2231463846FFF71AFE50
:1004F00039463246002000F017F9FF2028700748DF
:100500000122411C00F010F9FF202870034801224D
:10051000411C00F009F90120F8BD00000C0000208A
:100520000D000020F8B5102605273F07BE620E4DCE
:10053000FF20287028460D49012200F0F5F800241C
:10054000E443FF20287008480122411C00F0ECF829
:100550006878641EFF2804D0002CF2D1BE61002010
:10056000F8BD0120F8BD00000C0000200D000020A7
:1005700070B504460D46000607D56406640E0021DA
:100580003720FFF7F5FF012835D81B4AFF210C2C37
:1005900001D01170521C402020431070280E507062
:1005A000280C9070280AD07015710120521D002C63
:1005B00002D0082C02D002E0952000E087201070C5
:1005C000521C0C2C01D11170521C0B480021034607
:1005D000D21A00F0A9F8094D0A24FF202870074814
:1005E0000749012200F0A0F86878010603D5641ECF
:1005F0002406240EF1D170BD140000200C00002050
:100600000D000020F8B500241E4D0E460746E443B9
:10061000FF2028701B481C49012200F085F86878EB
:10062000641EFF2802D0002CF2D127E015482E705E
:10063000411C012200F078F8FD2E21D0012238461D
:100640005202002100F070F8FF2028700D480122AE
:10065000411C00F069F8FF2028700A480122411C63
:1006600000F062F8FF20287006480122411C00F0CB
:100670005BF86878C006C00E052801D00020F8BDE0
:100680000120F8BD0C0000200D00002038B5052425
:1006900025070023022221462846FFF767FD641C38
:1006A000E4B2082CF5D30B490A6B881402430A63A1
:1006B0000A6B82430A6308490A6802430A600968B0
:1006C0000140009117210548090241600449016079
:1006D00038BD0000001002404010024000300140D0
:1006E0007F0300000C4A81B0136B91140B4313631A
:1006F000136B8B431363094A13680B43136012682F
:100700000A4000921722064912024A60054AC000B8
:100710001043086001B070470010024040100240D2
:10072000003001404703000070B40024002A11D9B2
:100730000A4B002810D0065D9D68AD07FCD51E73DE
:100740009D68ED07FCD01D7B002900D00D55641C71
:100750009442EED370BC7047FF26EDE700300140B5
:10076000704702E008C8121F08C1002AFAD170477A
:100770007047002001E001C1121F002AFBD1704721
:1007800000B58BB0002207A1684600F02DFA0028C2
:1007900002D000200BB000BD684600F0E1F9012056
:1007A0000BB000BD61646D696E2E7478740000003A
:1007B000F3B581B001980F00066806D000F0DAFDAD
:1007C00002280AD2012003B0F0BDF468002C02D048
:1007D0007069A04207D8012405E0411CF3D071697B
:1007E0008142F0D83C4630690028ECD0BC4218D198
:1007F0007069651CA84200D802252946019800F0BE
:10080000B9FD0128DFD0411CDDD0002807D0F068F9
:10081000022806D37169814203D9044601E0002D04
:1008200016D1254670696D1CA84202D80225022CFB
:100830000BD32946019800F09DFD002808D001281F
:10084000C1D0411CBFD0A542ECD1002003B0F0BD07
:100850000024E44322462946304601F0E1F800280E
:1008600008D1002F0DD02A463946304601F0D8F87D
:10087000002806D0012800D001242546284603B0D0
:10088000F0BDF56071693069891E884201D8401E4B
:1008900030613079012108433071EFE7F3B5064646
:1008A00005680069012120308BB0490500270990B7
:1008B000884201D3B76106E0B069002803D00999E6
:1008C000C90503D074E004200DB0F0BD401CB06138
:1008D00071690998002922D06A89400A521E104283
:1008E00066D1304600F046FD0446012822D9601C3E
:1008F0004ED06869A0424ED80C98002813D03046DC
:100900007169FFF755FF040011D0012C12D0601C53
:100910003ED0284601F0B0F9002839D10DE02989F0
:100920004009884244D3B76104200DB0F0BD0720D0
:100930000DB0F0BD02200DB0F0BD6969A01E891E8A
:10094000814201D8002003E06989AA6A4143501816
:100950000290E86228460122303052020021074608
:1009600000F00CFE012004970190002701E001989F
:100970003F186889B84208D90298019BC219687863
:10098000049900F0D1F80028F1D06889B84202D06B
:1009900001200DB0F0BD74616869A41E801EA042E4
:1009A00001D8002003E06889A96A60430818B06193
:1009B000099830610998C005C00D40193030F061C8
:1009C00000200DB0F0BD70B504460021066800F0AF
:1009D00030F8002811D13046A16901F007F800284D
:1009E0000BD1E0690078E5280BD0002809D001215F
:1009F0002046FFF753FF0028EDD0042808D0054615
:100A000015E03046A16900F0F1FF050002D00EE0CC
:100A100007250CE020220021E06900F0AFFD21460F
:100A20000B222031E06900F081FD0120F0702846A2
:100A300070BDF8B506460468012040050D468142A8
:100A40003FD2E8063DD13561B168002905D1207853
:100A500003281BD3616A002918D060894702BD4270
:100A60000DD3304600F086FC0146401C15D002290B
:100A700027D36069884224D9ED1BBD42F1D2626957
:100A8000881E921E82420AD800200CE02289680942
:100A9000904216D2606AB06106E00120F8BD62891A
:100AA000A36A42439818B0617161002809D0690AAD
:100AB0004018B061E805C00D00193030F061002029
:100AC000F8BD0220F8BD000010B5064C01202070D2
:100AD000FFF78EFB002803D12078400840002070EB
:100AE000207810BD000000200020704710B514468B
:100AF0000846002B05D008490978C90703D0032010
:100B000010BD042010BD1A462146FFF72FFC002817
:100B1000F8D0012010BD000000000020014800783E
:100B2000704700000000002010B514460846002B56
:100B300005D00A490A78D20703D0032010BD04204B
:100B400010BD0978490701D5022010BD1A4621467B
:100B5000FFF76AFC0028F8D0012010BD000000203B
:100B600038B5044600F070FA002807D169462046DF
:100B700001F094F9002801D10021216038BD000066
:100B800037B5019B180010D00178401C21290FD3E4
:100B90003A29F9D119783039092906D89B1C8342A2
:100BA00003D1012901DA002903DA0B2003B030BD9B
:100BB00000218C000B4900230859002800D0037045
:100BC0000098002800D003700851002A06D00022A7
:100BD000694601A800F0EEFC03B030BD002003B070
:100BE00030BD000008000020002801D10920704716
:100BF000F7B592B097060546BF0E3A460BA913A863
:100C000000F0D8FC040069D10B9800906846139955
:100C100000F0DAFA040004D108A8C07A000600D572
:100C20000624F806400F5AD0002C0AD0042C03D119
:100C30006846FFF7C8FE044608200743002C0BD087
:100C4000B4E0684680791121084201D00724ADE064
:100C5000780701D50824A9E0380750D507980B99E3
:100C6000C27E09781602827E1643032905D1417D92
:100C7000007D09020143080406430798002181739F
:100C8000C1733622027453224274079A2020D07214
:100C900007980B9B8176C1761A78032A01D10175DA
:100CA00041750798017741778177C17701210B98CA
:100CB000002EC17021D0C06A0D90002231466846D6
:100CC00000F02EFF040071D10D990B9800F08EFEFC
:100CD0000446761E0B98002CC6600CD066E0002CF3
:100CE00064D168468079C10601D504245EE0B90765
:100CF00001D5C007AAD1380701D5402007430B9A78
:100D0000D06A2862079868620798C17E837E0902CC
:100D100019431378032B05D1437D007D1B02034348
:100D200018040143A9600798C37F867F1B023343E1
:100D3000467F1B023343007F1E020643EE602A609B
:100D40000B9AD088A8802F7400206874E8616861CD
:100D5000B8062DD5002E2BD06E615089470210E0C9
:100D6000284600F007FB0146012800D80224481C51
:100D700004D0F61B002C04D0A96117E00124A9615E
:100D800014E0BE42ECD8A961F00511D00B98891E81
:100D90004269921E8A4208D9826A408948431018E3
:100DA00003D0710A0818E86102E0022400202860DC
:100DB000204615B0F0BDF0B587B004460091002084
:100DC00018601F46154604A9204601F067F8002860
:100DD00012D1607C00280FD1207CC0070BD0616944
:100DE000E068401A854200D90546002D7BD0606935
:100DF000C10503D04FE0072007B0F0BD0499460AB3
:100E00004989491E0E400AD1002827D02046A169F1
:100E100000F0B0FA022823D3411C4AD0A061049903
:100E2000A0694A69801E921E824219D94A898B6A3A
:100E30005043181814D080190390680A029028D0E3
:100E40003018904201D9901B02904878029B039A77
:100E50000099FFF74BFE00282BD105E0A068D9E7E9
:100E60000220607407B0F0BD0499C87800280DD046
:100E7000CA6A0398101A029A904207D24202009856
:100E8000303110180122520200F050FB0298460245
:100E90001DE00398E061A08AC1050120C90D400250
:100EA000461AAE4222D8E169049800F09FFD00285E
:100EB00003D00120607407B0F0BDA08A0499C0057A
:100EC000C00D411832463031009800F02FFB3868D1
:100ED000AD1B8019386000988019009060698019F6
:100EE0006061002D83D1002007B0F0BD2E46DAE707
:100EF00033B5A5B00D000C460FD02078641C212816
:100F00000BD33A28F9D128783038092805D8A91CFC
:100F1000A14202D1012800DA2546022217A925A8FC
:100F200000F048FB00280DD11798019001A82599E1
:100F300000F04AF9002805D108A8C07BA02108428A
:100F400002D0062027B030BD202218A8089900F052
:100F5000EDFA2C2201A90CA800F0E8FA29460CA809
:100F600000F032F9002828D00428EBD10CA8FFF7B4
:100F70002AFD0028E6D1139C1BA92046132201312B
:100F80000D3000F0D3FA18A8C17AE172C80602D475
:100F900020200143E172179A0125D570E07AC0063E
:100FA00042D50E99039888423ED0E07EA17E000291
:100FB0000843117803290BD010E003990E9888425A
:100FC00003D1059910988842D0D0082027B030BDB1
:100FD000617D237D09021943090408435169801E7C
:100FE000891E814210D95189936A414359180BD007
:100FF000104600F0FBFC17990B4650310028E5D154
:1010000048782E2803D00FE0022027B030BD0E987C
:101010008876040ACC761A78032A03D1000C087566
:10102000000A48751798C570019C0799204600F082
:10103000DDFC0028E9D10899E5200870E5701798D3
:1010400000F0C6FD27B030BD38B50446694600F053
:1010500025FF002833D1217C490630D5216A00982C
:1010600000F0C4FC00282AD1616A2022C87A10430B
:10107000C872A26823688A76150ACD761878032884
:1010800003D1120C0A75120A4A75E2680A77120A2D
:101090004A77120A8A77120ACA7700228A75CA75B5
:1010A00036230B7653234B768A74CA740098012139
:1010B000C17000F08DFD217CBF221140217438BD2C
:1010C000F1B59CB002220BA91CA800F073FA00280D
:1010D0000CD10B98009068461C9900F075F8002818
:1010E00004D108A8C07A000602D506201DB0F0BDC4
:1010F00068468279D00702D007201DB0F0BD07985E
:101100000B99C37E1C02837E1C430B78032B05D1F5
:10111000437D007D1B02034318040443D0060126CF
:10112000002834DA0C910E9400210CA8FFF781FC02
:101130000028E2D10C991B911299042000270CADD4
:1011400000291FD012991B9800F050FC002819D1DB
:1011500013990878002814D0C97A8906890EA971D4
:10116000E52807D02E2805D00F2903D0DF20014025
:101170000829C1D100212846FFF790FB002801D1A2
:101180001EE0042012970028B6D00428B5D1009D97
:101190000699284600F02AFC0028AED1E5200799E0
:1011A000002C0870EE7006D000222146684600F040
:1011B000B7FC0028A1D10B9800F00AFD1DB0F0BDCE
:1011C00012980028BED197E7F3B58BB00B980C4668
:1011D0000068099000E0641C20782F28FBD05C2870
:1011E000F9D00B99002088600B9821782030089066
:1011F000202907D28021C17200210B98FFF719FC2A
:101200000DB0F0BD08980B222021039000F0B6F934
:1012100000210D460826605C491C20280ED92F2885
:1012200007D05C2805D02E2810D0B54213D215E087
:10123000491C625C2F2AFBD05C2AF9D06418002D6F
:1012400009D003990978E52921D023E00B2E02D09B
:1012500008250B26DFE706200DB0F0BD802803D35C
:1012600042063F48520E805C3EA200E0521C1378BA
:10127000002B02D08342F9D1EDE70246613A192AE8
:1012800001D82038C0B2039A50556D1CC3E7039AA9
:1012900005211170202801D8042100E000210398C5
:1012A000C1720B9D0021286801902846FFF7C1FB01
:1012B00000282BD1284620300590A969019800F01C
:1012C00095FB060021D1EA691078002813D0D07A66
:1012D0008006800EA871D07A000710D4059B0B20E1
:1012E00011781F78401EC91B521C5B1C002804D0BB
:1012F0000029F5D003E0042607E0002905D00021ED
:101300002846FFF7CBFA0600D7D0304608990028C8
:10131000C97A06D004289FD149079DD405200DB075
:10132000F0BD4907FBD40B988079C006F6D50B9821
:10133000008AC1050998C90D08183030C17E827E27
:1013400009021143099A1278032A05D1427D007DD2
:1013500012020243100401430B98816052E700001F
:10136000D41E0008222A2B2C3A3B3C3D3E3F5B5DBD
:101370007C7F0000F8B505680E4602290BD368692A
:10138000B04208D900242878E443012806D0022876
:101390002CD003283BD001242046F8BD70088719C3
:1013A000286A790A4118284600F020FB0028F3D16A
:1013B000F805C00D40192030007C00907F1C286A81
:1013C000790A4118284600F011FB0028E4D1F805FD
:1013D000C00D40192030007C009900020843F1073D
:1013E00001D00409D8E70405240DD5E7286A310A9D
:1013F0004118284600F0FAFA0028CDD13006C00D79
:1014000040193030417800780C020443C4E7286A60
:10141000F1094118284600F0E9FA0028BCD170060D
:10142000C00D40193030C1788278090211434278EA
:10143000090211430078090201430C012409ABE7BA
:10144000294882B0016803225202114301602849F1
:1014500026480860274801680122120411430160F0
:101460002549C160016812021143016001688901C8
:10147000FCD50221816081688906490F0229FAD1D1
:101480001E4A09039161416B012211434163416B83
:1014900011400091426B08210A434263406B0840AF
:1014A0000090FEF78FFE012215A11648FFF768FB9A
:1014B00000280ED100F006FC00280AD0FFF760F9E2
:1014C000002806D110A0FFF7FBFD0FA112A0FFF727
:1014D0000FFD15484068000E082801D100F05AFBA6
:1014E0000120FEF779FEFEE7000001400203040040
:1014F000002002400010024013300057401002400C
:10150000303A0000540000204649524D57415245A0
:101510002E435552000000006669726D7761726556
:101520002E62696E0000000000200008002A1AD018
:10153000114B9A4218D8012A02DD002A13DD00E07F
:101540000122401E491ED30703D04B784370401C34
:10155000491C521007D04B7843708B788370801CE5
:10156000891C521EF7D170470B780370401C491C30
:10157000521EF9D170470000FFFFFF7F0C4BC9B22C
:101580009A420FD8012A00DC0122401ED30701D065
:101590004170401C521004D041708170801C521E5A
:1015A000FAD170470170401C521EFBD170470000F9
:1015B000FFFFFF7FF0B587B000250D6004682300B2
:1015C00011D01E785B1C212E10D33A2EF9D126782B
:1015D000303E092E07D8A41C9C4204D1012E02DA09
:1015E0000360002E03DA0B2007B0F0BD0026F34B9A
:1015F000B0001C58002C14D00C60570820787F00D5
:10160000002804D06078FFF789FAC1070CD0257054
:10161000F0B26070FFF758FAC1070CD0032007B092
:10162000F0BD0C2007B0F0BD002F01D0400706D45C
:10163000002007B0F0BD002F04D0400702D50A20DB
:1016400007B0F0BD0021E170481EE062204600F0C6
:10165000CDF9042600287BD1D94821180691487875
:10166000097800020843D749884272D120462030C9
:101670000590007CE92803D0EB2801D0E8281FD191
:1016800020466630D0A1032203780D78401C5B1BF6
:10169000491C521E02D0002BF6D001E0002B69D06D
:1016A00021468231C9A005220D780378401CEB1A2F
:1016B000491C521E02D0002BF6D001E0002B67D04F
:1016C00000206B4602011119FF31F731CA788D787D
:1016D00012022A434D7812022A43097812020A4361
:1016E0008100401C5A500428ECD300252046663067
:1016F0000490A80069460958002941D00020E070F4
:10170000401EE0622746204600F070F9002801D014
:10171000042636E006984178007809020143A9487A
:1017200081422DD10598007CE92803D0EB2801D017
:10173000E82823D10499A4A203200B781678401E30
:101740009B1B491C521C002804D0002BF5D003E041
:101750001AE090E0002B0DD005219CA082373A784A
:101760000378401CD21A491E7F1C002904D0002A8D
:10177000F5D003E0002607E0002A09D0022600E0A9
:1017800003266D1C042DB4D3042E14D0022E72D265
:1017900021463B314878097800020843C11FE66AB8
:1017A000FF39FA3967D12146463148780978000275
:1017B000084303D00EE0012007B0F0BD21465431AC
:1017C000C8788A78000210434A78000210430978EA
:1017D00000020843A06140210390095DA170012926
:1017E00001D0022969D141433D200191015D618110
:1017F000002962D0481E01425FD120464130427824
:101800000078170207432781380756D12246433212
:1018100050781278000210430BD122465032D07813
:10182000937800021843537800021843127800029C
:10183000104323463E335A781B7812021A43009213
:101840003BD0019BD2183B09D2180292904234D36C
:10185000801AFEF751FC00282FD05E4900258842EF
:1018600000D803255C49884200D802255B4988429C
:1018700002D8012502E020E0002D1ED0801CE66188
:101880006061009971182162029AB218A262032D58
:1018900016D0002F11D0019A89186162022D27D02D
:1018A00041004118C0074908C00F0818FF30FF3039
:1018B00001300399400A81421CD20D2007B0F0BDCF
:1018C00022465A325178127809021143F5D1002F7D
:1018D000F3D121465C31CA788B7812021A434B78D7
:1018E00012021A43097812020A4380006262DDE79D
:1018F0004000DBE70020C0432061E06080202071D1
:10190000032D52D1214660314878097800020843FE
:1019100001284AD12046711C00F068F8002844D103
:101920002071274821184878097800020843254982
:1019300088423AD120463030C1788278090211437A
:101940004278090211430078090201432448814288
:101950002BD1852080002018C1788278090211439C
:101960004278090211430078090201431D4881426F
:101970001BD14320C0002118C8788A780002104388
:101980004A7800021043097800020843206187204A
:1019900080002018C1788278090211434278090238
:1019A0001143007809020143E1600F49257008885E
:1019B000401C0880E080002007B0F0BD0800002037
:1019C0002E02000055AA00004641540046415433FF
:1019D00032000000F5FFFF0FF5FF0000F50F0000DB
:1019E00052526141727241610400002070B5044698
:1019F000C06A0D460026A84210D0204600F03CF9EF
:101A000006000BD12146607801232A463031FFF7CA
:101A10006DF8002801D0751E0126E562304670BDC4
:101A2000F8B50D46022116460446022D76D36069AC
:101A3000A84273D92078012804D0022838D003287E
:101A40006CD147E068084719206A790A4118204696
:101A5000FFF7CCFF010061D1F805C00D001930304F
:101A60007F1CE90705D001780907090F32011143EE
:101A700000E0314601700120E070206A790A4118C7
:101A80002046FFF7B3FF010048D1F805C00D00194B
:101A90003030EA0702D03205120E05E00278330535
:101AA000120912011B0F1A4302700120E07035E089
:101AB000206A290A41182046FFF798FF01002DD11E
:101AC0002806C00D001930300670320A427001201D
:101AD000E07023E0206AE90941182046FFF786FFFD
:101AE00001001BD16806C00D00193030C278837820
:101AF00012021A43437812021A43037812021A435D
:101B0000120F330112071B091A430270120A4270A6
:101B1000120A8270120AC2700120E0700846F8BDF5
:101B2000F8B5056813460E46074602292DD36869A5
:101B3000B0422AD9002B07D00022D24319462846AA
:101B4000FFF76EFF00281FD131463846FFF712FC21
:101B5000040018D0012C18D0601C18D00022314687
:101B60002846FFF75DFF00280ED168692969821EAB
:101B7000914205D2491C2961297901221143297119
:101B80002646B042E0D80020F8BD0220F8BD012072
:101B9000F8BD000010B500210A48C943C162002207
:101BA000C2620163026381628262416242620648EC
:101BB0004168064C21600068FEF78CFA2068804777
:101BC00010BD00000010024000200008100000209E
:101BD00070B5044600F050F8060049D1207803287B
:101BE0003ED1207901283BD14202204630300021ED
:101BF0000546FFF7C3FC1F48552120180170AA2194
:101C0000417052212970697061218520A97041229B
:101C10008000EA7020187223037043708270C170D4
:101C20004320C000201821690170090A4170090A87
:101C30008170090AC170872080002018E168017056
:101C4000090A4170090A8170090AC170E269012319
:101C5000521CE26260782946FEF766FF0020207180
:101C6000002260781146FEF73FFF002800D00126D1
:101C7000304670BD2E02000070B50446C0780025C5
:101C800000280AD021463031607801230E46E26AEE
:101C9000FEF74AFF002802D00125284670BD00202B
:101CA000E070E16A206A0A1AA0698242F5D2A2783D
:101CB000022AF2D10A18607801233146FEF734FF78
:101CC000EBE70000F0B58DB000200A9004200C90E6
:101CD000012262A16846FEF787FF00287ED1634992
:101CE0000398634A4018904278D26348614A826000
:101CF000624A82600122D2030261059B03988342FB
:101D00006DD05F484169FF220132514041610BAB08
:101D1000D2005C496846FFF74EF800285FD153496E
:101D20000A9841185848814201D2042601E0012650
:101D3000F603032050490C9D00040A690242FCD1BD
:101D40000C69524A524B14420B6161D10C69640315
:101D5000FCD44C697F27FF00BC43042E4D4E01D0BC
:101D6000344300E0B443ED0025434B4C25434D6123
:101D70000C690442FCD10C690B61144201D00124AE
:101D800003E00C696403FCD400244D690226B543CA
:101D90004D61002C3CD10B9DED1DED0842D00A9AFF
:101DA000E1008B18314A344E9F18364A51184B685F
:101DB0000A6835690542FCD135693146334E3542F2
:101DC000334E0E6124D10D696D03FCD42A494D694F
:101DD00001210D4328494D613A6001E018E02EE0F1
:101DE000BFF36F8F02467B600B691342FCD10A6917
:101DF000264B0E611A4201D0012203E00A69520308
:101E0000FCD400224B695B085B004B61002A02D0C6
:101E100000200DB0F0BD0B99641CC91DA4B2C90807
:101E2000A142BCD80B990A9840180A900C980399C3
:101E3000401CC0B20C900598884200D061E768460B
:101E4000FEF78EFE0C4841698204114341610C4942
:101E50008015886201200DB0F0BD00006669726DCA
:101E6000776172652E62696E000000000020000834
:101E7000000008082301674500200240AB89EFCD30
:101E8000000C00508802002000000408FAC3000083
:101E9000FBC30800002000000200010070B5092506
:101EA0000E46044600280ED0206800280BD001788A
:101EB000002908D0A188C288914204D14078FEF759
:101EC0002DFEC00703D000203060284670BD0025DD
:101ED0002068F9E7809A45418E418F804545454904
:101EE00049498E8F9092924F994F555559999A9B87
:101EF0009C9D9E9F41494F55A5A5A6A7A8A9AAAB01
:101F0000ACADAEAFB0B1B2B3B4B5B6B7B8B9BABB99
:101F1000BCBDBEBFC0C1C2C3C4C5C6C7C8C9CACB89
:101F2000CCCDCECFD0D1D2D3D4D5D6D7D8D9DADB79
:101F3000DCDDDEDFE0E1E2E3E4E5E6E7E8E9EAEB69
:101F4000ECEDEEEFF0F1F2F3F4F5F6F7F8F9FAFB59
:101F5000FCFDFEFF741F00080000002014000000BC
:101F600062070008881F000814000020740E00009B
:101F700072070008010000000000000000000000DF
:081F8000000000000000000059
:04000005080000BD32
:00000001FF
